{
  "address": "0x0Be2398A11E351903d7528533F2b5d544301510c",
  "abi": [
    {
      "inputs": [
        {
          "internalType": "address",
          "name": "initialOwner",
          "type": "address"
        },
        {
          "internalType": "address",
          "name": "_citizenRegistry",
          "type": "address"
        }
      ],
      "stateMutability": "nonpayable",
      "type": "constructor"
    },
    {
      "inputs": [
        {
          "internalType": "address",
          "name": "owner",
          "type": "address"
        }
      ],
      "name": "OwnableInvalidOwner",
      "type": "error"
    },
    {
      "inputs": [
        {
          "internalType": "address",
          "name": "account",
          "type": "address"
        }
      ],
      "name": "OwnableUnauthorizedAccount",
      "type": "error"
    },
    {
      "inputs": [],
      "name": "ReentrancyGuardReentrantCall",
      "type": "error"
    },
    {
      "anonymous": false,
      "inputs": [
        {
          "indexed": true,
          "internalType": "address",
          "name": "contractAddress",
          "type": "address"
        },
        {
          "indexed": false,
          "internalType": "bool",
          "name": "authorized",
          "type": "bool"
        }
      ],
      "name": "ContractAuthorized",
      "type": "event"
    },
    {
      "anonymous": false,
      "inputs": [
        {
          "indexed": true,
          "internalType": "address",
          "name": "previousOwner",
          "type": "address"
        },
        {
          "indexed": true,
          "internalType": "address",
          "name": "newOwner",
          "type": "address"
        }
      ],
      "name": "OwnershipTransferred",
      "type": "event"
    },
    {
      "anonymous": false,
      "inputs": [
        {
          "indexed": false,
          "internalType": "uint256",
          "name": "issueReportReward",
          "type": "uint256"
        },
        {
          "indexed": false,
          "internalType": "uint256",
          "name": "verificationReward",
          "type": "uint256"
        },
        {
          "indexed": false,
          "internalType": "uint256",
          "name": "votingReward",
          "type": "uint256"
        },
        {
          "indexed": false,
          "internalType": "uint256",
          "name": "projectCompletionReward",
          "type": "uint256"
        }
      ],
      "name": "ReputationConfigUpdated",
      "type": "event"
    },
    {
      "anonymous": false,
      "inputs": [
        {
          "indexed": true,
          "internalType": "uint256",
          "name": "citizenId",
          "type": "uint256"
        },
        {
          "indexed": true,
          "internalType": "address",
          "name": "citizen",
          "type": "address"
        },
        {
          "indexed": false,
          "internalType": "uint256",
          "name": "oldScore",
          "type": "uint256"
        },
        {
          "indexed": false,
          "internalType": "uint256",
          "name": "newScore",
          "type": "uint256"
        },
        {
          "indexed": false,
          "internalType": "string",
          "name": "reason",
          "type": "string"
        }
      ],
      "name": "ReputationUpdated",
      "type": "event"
    },
    {
      "inputs": [
        {
          "internalType": "uint256",
          "name": "_citizenId",
          "type": "uint256"
        },
        {
          "internalType": "bytes32",
          "name": "_reportId",
          "type": "bytes32"
        }
      ],
      "name": "addIssueReportReputation",
      "outputs": [],
      "stateMutability": "nonpayable",
      "type": "function"
    },
    {
      "inputs": [
        {
          "internalType": "uint256",
          "name": "_citizenId",
          "type": "uint256"
        },
        {
          "internalType": "bytes32",
          "name": "_projectId",
          "type": "bytes32"
        }
      ],
      "name": "addProjectCompletionReputation",
      "outputs": [],
      "stateMutability": "nonpayable",
      "type": "function"
    },
    {
      "inputs": [
        {
          "internalType": "uint256",
          "name": "_citizenId",
          "type": "uint256"
        },
        {
          "internalType": "bytes32",
          "name": "_verificationId",
          "type": "bytes32"
        }
      ],
      "name": "addVerificationReputation",
      "outputs": [],
      "stateMutability": "nonpayable",
      "type": "function"
    },
    {
      "inputs": [
        {
          "internalType": "uint256",
          "name": "_citizenId",
          "type": "uint256"
        },
        {
          "internalType": "bytes32",
          "name": "_voteId",
          "type": "bytes32"
        }
      ],
      "name": "addVotingReputation",
      "outputs": [],
      "stateMutability": "nonpayable",
      "type": "function"
    },
    {
      "inputs": [
        {
          "internalType": "uint256[]",
          "name": "_citizenIds",
          "type": "uint256[]"
        }
      ],
      "name": "applyDailyDecay",
      "outputs": [],
      "stateMutability": "nonpayable",
      "type": "function"
    },
    {
      "inputs": [
        {
          "internalType": "address",
          "name": "_contract",
          "type": "address"
        },
        {
          "internalType": "bool",
          "name": "_authorized",
          "type": "bool"
        }
      ],
      "name": "authorizeContract",
      "outputs": [],
      "stateMutability": "nonpayable",
      "type": "function"
    },
    {
      "inputs": [
        {
          "internalType": "address",
          "name": "",
          "type": "address"
        }
      ],
      "name": "authorizedContracts",
      "outputs": [
        {
          "internalType": "bool",
          "name": "",
          "type": "bool"
        }
      ],
      "stateMutability": "view",
      "type": "function"
    },
    {
      "inputs": [],
      "name": "citizenRegistry",
      "outputs": [
        {
          "internalType": "contract CitizenIdentityRegistry",
          "name": "",
          "type": "address"
        }
      ],
      "stateMutability": "view",
      "type": "function"
    },
    {
      "inputs": [],
      "name": "config",
      "outputs": [
        {
          "internalType": "uint256",
          "name": "issueReportReward",
          "type": "uint256"
        },
        {
          "internalType": "uint256",
          "name": "verificationReward",
          "type": "uint256"
        },
        {
          "internalType": "uint256",
          "name": "votingReward",
          "type": "uint256"
        },
        {
          "internalType": "uint256",
          "name": "projectCompletionReward",
          "type": "uint256"
        },
        {
          "internalType": "uint256",
          "name": "falseReportPenalty",
          "type": "uint256"
        },
        {
          "internalType": "uint256",
          "name": "maxDailyEarnings",
          "type": "uint256"
        },
        {
          "internalType": "uint256",
          "name": "decayRate",
          "type": "uint256"
        },
        {
          "internalType": "uint256",
          "name": "minimumDecayThreshold",
          "type": "uint256"
        }
      ],
      "stateMutability": "view",
      "type": "function"
    },
    {
      "inputs": [
        {
          "internalType": "uint256",
          "name": "_citizenId",
          "type": "uint256"
        },
        {
          "internalType": "uint256",
          "name": "_newScore",
          "type": "uint256"
        }
      ],
      "name": "emergencyResetReputation",
      "outputs": [],
      "stateMutability": "nonpayable",
      "type": "function"
    },
    {
      "inputs": [
        {
          "internalType": "uint256",
          "name": "_citizenId",
          "type": "uint256"
        }
      ],
      "name": "getDailyEarningsInfo",
      "outputs": [
        {
          "internalType": "uint256",
          "name": "dailyEarnings",
          "type": "uint256"
        },
        {
          "internalType": "uint256",
          "name": "remainingEarnings",
          "type": "uint256"
        },
        {
          "internalType": "uint256",
          "name": "lastReset",
          "type": "uint256"
        }
      ],
      "stateMutability": "view",
      "type": "function"
    },
    {
      "inputs": [
        {
          "internalType": "uint256",
          "name": "_citizenId",
          "type": "uint256"
        }
      ],
      "name": "getReputationScore",
      "outputs": [
        {
          "internalType": "uint256",
          "name": "",
          "type": "uint256"
        }
      ],
      "stateMutability": "view",
      "type": "function"
    },
    {
      "inputs": [
        {
          "internalType": "uint256",
          "name": "_citizenId",
          "type": "uint256"
        }
      ],
      "name": "getReputationStats",
      "outputs": [
        {
          "internalType": "uint256",
          "name": "totalScore",
          "type": "uint256"
        },
        {
          "internalType": "uint256",
          "name": "totalReports",
          "type": "uint256"
        },
        {
          "internalType": "uint256",
          "name": "verifiedReports",
          "type": "uint256"
        },
        {
          "internalType": "uint256",
          "name": "totalVerifications",
          "type": "uint256"
        },
        {
          "internalType": "uint256",
          "name": "successfulVerifications",
          "type": "uint256"
        },
        {
          "internalType": "uint256",
          "name": "votingParticipation",
          "type": "uint256"
        },
        {
          "internalType": "uint256",
          "name": "lastUpdateTimestamp",
          "type": "uint256"
        }
      ],
      "stateMutability": "view",
      "type": "function"
    },
    {
      "inputs": [
        {
          "internalType": "uint256",
          "name": "_limit",
          "type": "uint256"
        }
      ],
      "name": "getTopReputationCitizens",
      "outputs": [
        {
          "internalType": "uint256[]",
          "name": "citizenIds",
          "type": "uint256[]"
        },
        {
          "internalType": "uint256[]",
          "name": "scores",
          "type": "uint256[]"
        }
      ],
      "stateMutability": "view",
      "type": "function"
    },
    {
      "inputs": [],
      "name": "owner",
      "outputs": [
        {
          "internalType": "address",
          "name": "",
          "type": "address"
        }
      ],
      "stateMutability": "view",
      "type": "function"
    },
    {
      "inputs": [
        {
          "internalType": "uint256",
          "name": "_citizenId",
          "type": "uint256"
        },
        {
          "internalType": "bytes32",
          "name": "_reportId",
          "type": "bytes32"
        }
      ],
      "name": "penalizeFalseReport",
      "outputs": [],
      "stateMutability": "nonpayable",
      "type": "function"
    },
    {
      "inputs": [],
      "name": "renounceOwnership",
      "outputs": [],
      "stateMutability": "nonpayable",
      "type": "function"
    },
    {
      "inputs": [
        {
          "internalType": "address",
          "name": "newOwner",
          "type": "address"
        }
      ],
      "name": "transferOwnership",
      "outputs": [],
      "stateMutability": "nonpayable",
      "type": "function"
    },
    {
      "inputs": [
        {
          "internalType": "uint256",
          "name": "_issueReportReward",
          "type": "uint256"
        },
        {
          "internalType": "uint256",
          "name": "_verificationReward",
          "type": "uint256"
        },
        {
          "internalType": "uint256",
          "name": "_votingReward",
          "type": "uint256"
        },
        {
          "internalType": "uint256",
          "name": "_projectCompletionReward",
          "type": "uint256"
        },
        {
          "internalType": "uint256",
          "name": "_falseReportPenalty",
          "type": "uint256"
        },
        {
          "internalType": "uint256",
          "name": "_maxDailyEarnings",
          "type": "uint256"
        },
        {
          "internalType": "uint256",
          "name": "_decayRate",
          "type": "uint256"
        },
        {
          "internalType": "uint256",
          "name": "_minimumDecayThreshold",
          "type": "uint256"
        }
      ],
      "name": "updateConfig",
      "outputs": [],
      "stateMutability": "nonpayable",
      "type": "function"
    }
  ],
  "transactionHash": "0xe7602c00b5f716dfa64293d75f7f5eca24d84ec0fc92f9e23db9bb55d6c7b926",
  "args": [
    "0x847118E06a68716b385a86a50250C598D33Ca68C",
    "0x9F4Bc4cb48e60871768b4cFB9CF9C53381063652"
  ],
  "numDeployments": 1,
  "solcInputHash": "604c9b416adca51f3a9c4c2681d47f73",
  "bytecode": "0x60a034620002315762002062906001600160401b03601f38849003908101601f19168301908282118483101762000236578084916040968794855283398101031262000231576200005e602062000056846200024c565b93016200024c565b916001600160a01b039081169081156200021957600080546001600160a01b03198116841782558651919591939083167f8be0079c531659141344cd1fd0a4f28419497f9722a3daafe3b4186f6b6457e08780a36001805516908115620001bc5750608052825191610100830191821183831017620001a8575060649160e09184526032815260196020820152600a84820152826060820152604b608082015260c860a0820152600a60c0820152015260326002556019600355600a6004556064600555604b60065560c8600755600a600855606460095551611e0090816200026282396080518181816102020152818161031a015281816103f6015281816105b301528181610709015281816109d001528181610b9f01528181610e7101528181610ff7015281816110ea015281816111ff015281816113f301528181611a7d0152611c0a0152f35b634e487b7160e01b81526041600452602490fd5b62461bcd60e51b815260206004820152603260248201527f52657075746174696f6e53797374656d3a20496e76616c696420636974697a656044820152716e207265676973747279206164647265737360701b6064820152608490fd5b8451631e4fbdf760e01b815260006004820152602490fd5b600080fd5b634e487b7160e01b600052604160045260246000fd5b51906001600160a01b0382168203620002315756fe6040608081526004908136101561001557600080fd5b600091823560e01c8063028b67101461139a5780630cc73895146111b157806329e6e78f146110b15780632dffe77214611026578063386ca89d14610fe25780634161521114610e235780635cbeb13f14610d4457806368efb2a314610b515780636e23040014610982578063715018a61461092557806379502c55146108cb5780638da5cb5b146108a3578063b21f9346146106e7578063b2b92b031461056d578063bad6d797146103a9578063bd5bcb0a146102df578063c8697b6b146101c7578063d5b9221b146101855763f2fde38b146100f257600080fd5b346101815760203660031901126101815761010b6115a7565b906101146115f1565b6001600160a01b0391821692831561016b575050600054826bffffffffffffffffffffffff60a01b821617600055167f8be0079c531659141344cd1fd0a4f28419497f9722a3daafe3b4186f6b6457e0600080a380f35b51631e4fbdf760e01b8152908101849052602490fd5b8280fd5b5050346101c35760203660031901126101c35760209160ff9082906001600160a01b036101b06115a7565b168152600b855220541690519015158152f35b5080fd5b509034610181576020366003190112610181578135926101e8841515611679565b8151630448a54560e51b81528381018590529381856024817f00000000000000000000000000000000000000000000000000000000000000006001600160a01b03165afa809583966102bb575b5061025557825162461bcd60e51b815280610251818701611937565b0390fd5b82935061026a61012060e096015115156118df565b8152600a602052209081549160058101549160068201546007830154906008840154926001600986015495015495815197885260208801528601526060850152608084015260a083015260c0820152f35b6102d89196503d8085833e6102d08183611733565b8101906117cd565b9438610235565b50903461018157602036600319011261018157813592610300841515611679565b8151630448a54560e51b81528381018590529381856024817f00000000000000000000000000000000000000000000000000000000000000006001600160a01b03165afa8095839661038d575b5061036957825162461bcd60e51b815280610251818701611937565b82935061037e610120602096015115156118df565b8152600a845220549051908152f35b6103a29196503d8085833e6102d08183611733565b943861034d565b509034610181576103b93661158c565b338552602090600b82526103d260ff858820541661161d565b6103dd831515611679565b8351630448a54560e51b815285810184905286816024817f00000000000000000000000000000000000000000000000000000000000000006001600160a01b03165afa879181610551575b5061044457845162461bcd60e51b815280610251818901611937565b90610457610120889793015115156118df565b845183810191661c1c9bda9958dd60ca1b835260278201526027815261047c81611717565b51902092808652600a83528185872001848752835260ff85872054166104fb576104dd6005548651906104ae826116fb565b601c82527f50726f6a656374206d696c6573746f6e6520636f6d706c6574696f6e0000000086830152836119f7565b8552600a825283852001918452528120600160ff1982541617905580f35b5060849184519162461bcd60e51b835282015260396024820152600080516020611dab83398151915260448201527f20636c61696d656420666f7220746869732070726f6a656374000000000000006064820152fd5b6105669192503d808a833e6102d08183611733565b9038610428565b50903461018157806003193601126101815781359060243561058d6115f1565b828552600a602052818520805482825542600190920191909155936001600160a01b03927f00000000000000000000000000000000000000000000000000000000000000008416803b156106e357815163fdf488f760e01b81528684820152846024820152888160448183865af180156106d9576106ab575b509160a0939185600080516020611d8b83398151915296948a896024829686519485938492630448a54560e51b84528301525afa8b918161068e575b50610680575b50506060919281519889526020890152870152600f60608701526e115b595c99d95b98de481c995cd95d608a1b60808701521693a380f35b602001511691508338610648565b6106a49192508c3d8091833e6102d08183611733565b9038610642565b9185600080516020611d8b833981519152969492996106cc60a097956116d1565b9992945095509193610606565b83513d8b823e3d90fd5b8780fd5b5034610181576020908160031936011261089f5782516303c9926b60e31b81527f00000000000000000000000000000000000000000000000000000000000000006001600160a01b031694823590848385818a5afa928315610893578193610864575b5082821161085c575b61075c82611d2e565b9661076683611d2e565b94829360019586805b61079f575b8b8b61079b8c8c61078e84519585879687528601906115bd565b91848303908501526115bd565b0390f35b8181111580610853575b1561084e578b8b51630448a54560e51b8152828682015287816024818a5afa889181610832575b506107e65750506107e090611980565b8761076f565b61012001516107fa575b506107e090611980565b878261080d6107e0949a61082994611d60565b52888852600a8c528c882054610823828d611d60565b52611980565b9690508b6107f0565b6108479192503d808b833e6102d08183611733565b90386107d0565b610774565b508287106107a9565b829150610753565b9092508481813d831161088c575b61087c8183611733565b810103126101815751913861074a565b503d610872565b508551903d90823e3d90fd5b8380fd5b5050346101c357816003193601126101c357905490516001600160a01b039091168152602090f35b5034610181578260031936011261018157610100925060025491600354915460055460065490600754926008549460095496815198895260208901528701526060860152608085015260a084015260c083015260e0820152f35b833461097f578060031936011261097f5761093e6115f1565b80546001600160a01b03198116825581906001600160a01b03167f8be0079c531659141344cd1fd0a4f28419497f9722a3daafe3b4186f6b6457e08280a380f35b80fd5b509034610181576109923661158c565b90338552602091600b83526109ac60ff858820541661161d565b6109b7821515611679565b8351630448a54560e51b815285810183905286816024817f00000000000000000000000000000000000000000000000000000000000000006001600160a01b03165afa879181610b35575b50610a1e57845162461bcd60e51b815280610251818901611937565b90610a31610120889793015115156118df565b84518481019163766f746560e01b8352602482015260248152610a5381611717565b51902090828652600a84528085872001828752845260ff8587205416610ae55791600994939183610ab3600a9554875190610a8d826116fb565b60148252732b37ba34b733903830b93a34b1b4b830ba34b7b760611b87830152856119f7565b828852848452858820019087528252838620600160ff19825416179055855252822001610ae08154611980565b905580f35b845162461bcd60e51b815290810184905260366024820152600080516020611dab83398151915260448201527520636c61696d656420666f72207468697320766f746560501b6064820152608490fd5b610b4a9192503d808a833e6102d08183611733565b9038610a02565b50903461018157610b613661158c565b90338552602091600b8352610b7b60ff858820541661161d565b610b86821515611679565b8351630448a54560e51b815285810183905286816024817f00000000000000000000000000000000000000000000000000000000000000006001600160a01b03165afa879181610d28575b50610bed57845162461bcd60e51b815280610251818901611937565b90610c00610120889793015115156118df565b8451848101916b1a5cdcdd5957dc995c1bdc9d60a21b8352602c820152602c8152610c2a81611717565b51902090828652600a84528085872001828752845260ff8587205416610cd157916006949391600a93610c8c600254875190610c65826116fb565b601582527415995c9a599a5959081a5cdcdd59481c995c1bdc9d605a1b87830152856119f7565b828852848452858820019087528252838620600160ff19825416179055808652828252600584872001610cbf8154611980565b9055855252822001610ae08154611980565b845162461bcd60e51b815290810184905260386024820152600080516020611dab83398151915260448201527f20636c61696d656420666f722074686973207265706f727400000000000000006064820152608490fd5b610d3d9192503d808a833e6102d08183611733565b9038610bd1565b509034610181578060031936011261018157610d5e6115a7565b9060243591821515809303610e1f57610d756115f1565b6001600160a01b0316928315610dca57507f3213ab8ec2ed122402f038736b41878b69ae9f61f49a7edd0666bce891d29fc991602091848652600b835280862060ff1981541660ff841617905551908152a280f35b6020608492519162461bcd60e51b8352820152602a60248201527f52657075746174696f6e53797374656d3a20496e76616c696420636f6e7472616044820152696374206164647265737360b01b6064820152fd5b8480fd5b50903461018157610e333661158c565b90338552602091600b8352610e4d60ff858820541661161d565b610e58821515611679565b8351630448a54560e51b815285810183905286816024817f00000000000000000000000000000000000000000000000000000000000000006001600160a01b03165afa879181610fc6575b50610ebf57845162461bcd60e51b815280610251818901611937565b90610ed2610120889793015115156118df565b8451848101916b19985b1cd957dc995c1bdc9d60a21b8352602c820152602c8152610efc81611717565b51902090828652600a84528085872001828752845260ff8587205416610f5d57916005949391600a93610ab3600654875190610f37826116fb565b601482527346616c7365207265706f72742070656e616c747960601b8783015285611bcd565b845162461bcd60e51b8152908101849052603960248201527f52657075746174696f6e53797374656d3a2050656e616c747920616c7265616460448201527f79206170706c69656420666f722074686973207265706f7274000000000000006064820152608490fd5b610fdb9192503d808a833e6102d08183611733565b9038610ea3565b5050346101c357816003193601126101c357517f00000000000000000000000000000000000000000000000000000000000000006001600160a01b03168152602090f35b503461018157610100366003190112610181577f8f44d71ba15e77d8af7ec9274f5b957127f8167f4429e3c12aa5939247aec11991816080923591602435906044359182606435946110766115f1565b8660025582600355558360055560843560065560a43560075560c43560085560e435600955815194855260208501528301526060820152a180f35b5090346101815760203660031901126101815781356110d1811515611679565b8151630448a54560e51b815283810182905284816024817f00000000000000000000000000000000000000000000000000000000000000006001600160a01b03165afa859181611195575b5061113857825162461bcd60e51b815280610251818701611937565b606094935061012061114d91015115156118df565b8252600a602052808220906003600754936002840154809581811160001461118d5761117992506119b2565b925b01549181519384526020840152820152f35b50509261117b565b6111aa9192503d8088833e6102d08183611733565b903861111c565b509034610181576111c13661158c565b90338552602091600b83526111db60ff858820541661161d565b6111e6821515611679565b8351630448a54560e51b815285810183905286816024817f00000000000000000000000000000000000000000000000000000000000000006001600160a01b03165afa87918161137e575b5061124d57845162461bcd60e51b815280610251818901611937565b90611260610120889793015115156118df565b8451848101916b3b32b934b334b1b0ba34b7b760a11b8352602c820152602c815261128a81611717565b51902090828652600a84528085872001828752845260ff858720541661132757916008949391600a936112f46003548751906112c5826116fb565b601782527f5375636365737366756c20766572696669636174696f6e00000000000000000087830152856119f7565b828852848452858820019087528252838620600160ff19825416179055808652828252600784872001610cbf8154611980565b845162461bcd60e51b8152908101849052603e6024820152600080516020611dab83398151915260448201527f20636c61696d656420666f72207468697320766572696669636174696f6e00006064820152608490fd5b6113939192503d808a833e6102d08183611733565b9038611231565b508290346101c3576020928360031936011261018157813567ffffffffffffffff94858211610e1f5736602383011215610e1f5781840135958611610e1f57602495600592368883861b830101116115885795969590927f00000000000000000000000000000000000000000000000000000000000000006001600160a01b03169190885b85811061142a578980f35b8881839b98999a9b1b84010135611442811515611679565b8851630448a54560e51b81528a810182905288818d81895afa89918161156c575b5061147f57895162461bcd60e51b815280610251818e01611937565b610120611493919b9a999b015115156118df565b808a52600a8652878a20805490600954821180611540575b906114c0949392916114c8575b505050611980565b98979861141f565b612710916114ef620151806114e460016114f4950154426119b2565b049160085490611d03565b611d03565b049081611502575b806114b8565b611539918a5191611512836116fb565b60168352754461696c792072657075746174696f6e20646563617960501b8a840152611bcd565b8b806114fc565b50600181015462015180810180911161155a5742116114ab565b634e487b7160e01b8d5260118c528d8dfd5b6115819192503d808c833e6102d08183611733565b908d611463565b8680fd5b60409060031901126115a2576004359060243590565b600080fd5b600435906001600160a01b03821682036115a257565b90815180825260208080930193019160005b8281106115dd575050505090565b8351855293810193928101926001016115cf565b6000546001600160a01b0316330361160557565b60405163118cdaa760e01b8152336004820152602490fd5b1561162457565b60405162461bcd60e51b815260206004820152602760248201527f52657075746174696f6e53797374656d3a2043616c6c6572206e6f74206175746044820152661a1bdc9a5e995960ca1b6064820152608490fd5b1561168057565b60405162461bcd60e51b8152602060048201526024808201527f52657075746174696f6e53797374656d3a20496e76616c696420636974697a656044820152631b88125160e21b6064820152608490fd5b67ffffffffffffffff81116116e557604052565b634e487b7160e01b600052604160045260246000fd5b6040810190811067ffffffffffffffff8211176116e557604052565b6060810190811067ffffffffffffffff8211176116e557604052565b90601f8019910116810190811067ffffffffffffffff8211176116e557604052565b60005b8381106117685750506000910152565b8181015183820152602001611758565b81601f820112156115a257805167ffffffffffffffff81116116e557604051926117ac601f8301601f191660200185611733565b818452602082840101116115a2576117ca9160208085019101611755565b90565b6020818303126115a257805167ffffffffffffffff918282116115a257016101809283828203126115a257604051938401848110848211176116e5576040528151845260208201516001600160a01b03811681036115a257602085015260408201518381116115a25781611842918401611778565b604085015260608201518381116115a2578161185f918401611778565b60608501526080820151608085015260a082015160a085015260c082015160048110156115a25760c085015260e082015160e08501526101008083015190850152610120808301519081151582036115a257850152610140808301519085015261016092838301519081116115a2576118d89201611778565b9082015290565b156118e657565b60405162461bcd60e51b8152602060048201526024808201527f52657075746174696f6e53797374656d3a20436974697a656e206e6f742061636044820152637469766560e01b6064820152608490fd5b60809060208152602860208201527f52657075746174696f6e53797374656d3a20436974697a656e20646f6573206e6040820152671bdd08195e1a5cdd60c21b60608201520190565b600019811461198f5760010190565b634e487b7160e01b600052601160045260246000fd5b9190820180921161198f57565b9190820391821161198f57565b916080939183526020830152606060408301526119eb8151809281606086015260208686019101611755565b601f01601f1916010190565b929192600093818552600a60205260408520600381018054620151808101809111611bb9574211611baa575b508360028201611a35815492836119a5565b600754809111611b86575b5085611a51575b5050505050509050565b611a6a835496611a6181896119a5565b938486556119a5565b90554260018301556001600160a01b03927f0000000000000000000000000000000000000000000000000000000000000000841691823b15611b82576040519063fdf488f760e01b82528660048301526024820152888160448183875af18015611b7757600080516020611d8b833981519152969798998692602492611b68575b5080809560405193848092630448a54560e51b82528d60048301525afa90918282611b4b575b5050611b3d575b5050611b2e9192546040519485941697846119bf565b0390a380388080808080611a47565b602001511691508338611b18565b611b609293503d8091833e6102d08183611733565b903880611b11565b611b71906116d1565b38611aeb565b6040513d8b823e3d90fd5b8880fd5b9095508180821115611ba257611b9b916119b2565b9438611a40565b505086611b9b565b86600283015542905538611a23565b634e487b7160e01b88526011600452602488fd5b6000818152600a6020526040812080549195949193808510611cfa57611bf49082546119b2565b81555b42600182015580546001600160a01b03927f0000000000000000000000000000000000000000000000000000000000000000841691823b15611b82576040519063fdf488f760e01b82528660048301526024820152888160448183875af18015611b7757600080516020611d8b833981519152969798998692602492611ceb575b5080809560405193848092630448a54560e51b82528d60048301525afa90918282611cce575b5050611cc0575b5050611cbb9192546040519485941697846119bf565b0390a3565b602001511691508338611ca5565b611ce39293503d8091833e6102d08183611733565b903880611c9e565b611cf4906116d1565b38611c78565b50858155611bf7565b8181029291811591840414171561198f57565b67ffffffffffffffff81116116e55760051b60200190565b90611d3882611d16565b611d456040519182611733565b8281528092611d56601f1991611d16565b0190602036910137565b8051821015611d745760209160051b010190565b634e487b7160e01b600052603260045260246000fdfe5653f9d595db843b99875613cc55c95fe05012924b8e4fc5671f9a1cb76f2d9052657075746174696f6e53797374656d3a2052657761726420616c7265616479a2646970667358221220205369cc50f4abb4de4e0ac0572e818f0446d7fb37a37b400fcf7ff6a66ac9af64736f6c63430008140033",
  "devdoc": {
    "author": "CitiProof Team",
    "details": "Manages citizen reputation scores based on verified activities",
    "errors": {
      "OwnableInvalidOwner(address)": [
        {
          "details": "The owner is not a valid owner account. (eg. `address(0)`)"
        }
      ],
      "OwnableUnauthorizedAccount(address)": [
        {
          "details": "The caller account is not authorized to perform an operation."
        }
      ],
      "ReentrancyGuardReentrantCall()": [
        {
          "details": "Unauthorized reentrant call."
        }
      ]
    },
    "kind": "dev",
    "methods": {
      "addIssueReportReputation(uint256,bytes32)": {
        "details": "Add reputation points for verified issue report"
      },
      "addProjectCompletionReputation(uint256,bytes32)": {
        "details": "Add reputation points for project completion"
      },
      "addVerificationReputation(uint256,bytes32)": {
        "details": "Add reputation points for successful verification"
      },
      "addVotingReputation(uint256,bytes32)": {
        "details": "Add reputation points for voting participation"
      },
      "applyDailyDecay(uint256[])": {
        "details": "Apply daily reputation decay to prevent inflation"
      },
      "owner()": {
        "details": "Returns the address of the current owner."
      },
      "penalizeFalseReport(uint256,bytes32)": {
        "details": "Penalize reputation for false reports"
      },
      "renounceOwnership()": {
        "details": "Leaves the contract without owner. It will not be possible to call `onlyOwner` functions. Can only be called by the current owner. NOTE: Renouncing ownership will leave the contract without an owner, thereby disabling any functionality that is only available to the owner."
      },
      "transferOwnership(address)": {
        "details": "Transfers ownership of the contract to a new account (`newOwner`). Can only be called by the current owner."
      }
    },
    "title": "ReputationSystem",
    "version": 1
  },
  "userdoc": {
    "kind": "user",
    "methods": {},
    "version": 1
  },
  "storageLayout": {
    "storage": [
      {
        "astId": 8,
        "contract": "contracts/ReputationSystem.sol:ReputationSystem",
        "label": "_owner",
        "offset": 0,
        "slot": "0",
        "type": "t_address"
      },
      {
        "astId": 188,
        "contract": "contracts/ReputationSystem.sol:ReputationSystem",
        "label": "_status",
        "offset": 0,
        "slot": "1",
        "type": "t_uint256"
      },
      {
        "astId": 5903,
        "contract": "contracts/ReputationSystem.sol:ReputationSystem",
        "label": "config",
        "offset": 0,
        "slot": "2",
        "type": "t_struct(ReputationConfig)5900_storage"
      },
      {
        "astId": 5931,
        "contract": "contracts/ReputationSystem.sol:ReputationSystem",
        "label": "reputationData",
        "offset": 0,
        "slot": "10",
        "type": "t_mapping(t_uint256,t_struct(ReputationData)5926_storage)"
      },
      {
        "astId": 5935,
        "contract": "contracts/ReputationSystem.sol:ReputationSystem",
        "label": "authorizedContracts",
        "offset": 0,
        "slot": "11",
        "type": "t_mapping(t_address,t_bool)"
      }
    ],
    "types": {
      "t_address": {
        "encoding": "inplace",
        "label": "address",
        "numberOfBytes": "20"
      },
      "t_bool": {
        "encoding": "inplace",
        "label": "bool",
        "numberOfBytes": "1"
      },
      "t_bytes32": {
        "encoding": "inplace",
        "label": "bytes32",
        "numberOfBytes": "32"
      },
      "t_mapping(t_address,t_bool)": {
        "encoding": "mapping",
        "key": "t_address",
        "label": "mapping(address => bool)",
        "numberOfBytes": "32",
        "value": "t_bool"
      },
      "t_mapping(t_bytes32,t_bool)": {
        "encoding": "mapping",
        "key": "t_bytes32",
        "label": "mapping(bytes32 => bool)",
        "numberOfBytes": "32",
        "value": "t_bool"
      },
      "t_mapping(t_uint256,t_struct(ReputationData)5926_storage)": {
        "encoding": "mapping",
        "key": "t_uint256",
        "label": "mapping(uint256 => struct ReputationSystem.ReputationData)",
        "numberOfBytes": "32",
        "value": "t_struct(ReputationData)5926_storage"
      },
      "t_struct(ReputationConfig)5900_storage": {
        "encoding": "inplace",
        "label": "struct ReputationSystem.ReputationConfig",
        "members": [
          {
            "astId": 5885,
            "contract": "contracts/ReputationSystem.sol:ReputationSystem",
            "label": "issueReportReward",
            "offset": 0,
            "slot": "0",
            "type": "t_uint256"
          },
          {
            "astId": 5887,
            "contract": "contracts/ReputationSystem.sol:ReputationSystem",
            "label": "verificationReward",
            "offset": 0,
            "slot": "1",
            "type": "t_uint256"
          },
          {
            "astId": 5889,
            "contract": "contracts/ReputationSystem.sol:ReputationSystem",
            "label": "votingReward",
            "offset": 0,
            "slot": "2",
            "type": "t_uint256"
          },
          {
            "astId": 5891,
            "contract": "contracts/ReputationSystem.sol:ReputationSystem",
            "label": "projectCompletionReward",
            "offset": 0,
            "slot": "3",
            "type": "t_uint256"
          },
          {
            "astId": 5893,
            "contract": "contracts/ReputationSystem.sol:ReputationSystem",
            "label": "falseReportPenalty",
            "offset": 0,
            "slot": "4",
            "type": "t_uint256"
          },
          {
            "astId": 5895,
            "contract": "contracts/ReputationSystem.sol:ReputationSystem",
            "label": "maxDailyEarnings",
            "offset": 0,
            "slot": "5",
            "type": "t_uint256"
          },
          {
            "astId": 5897,
            "contract": "contracts/ReputationSystem.sol:ReputationSystem",
            "label": "decayRate",
            "offset": 0,
            "slot": "6",
            "type": "t_uint256"
          },
          {
            "astId": 5899,
            "contract": "contracts/ReputationSystem.sol:ReputationSystem",
            "label": "minimumDecayThreshold",
            "offset": 0,
            "slot": "7",
            "type": "t_uint256"
          }
        ],
        "numberOfBytes": "256"
      },
      "t_struct(ReputationData)5926_storage": {
        "encoding": "inplace",
        "label": "struct ReputationSystem.ReputationData",
        "members": [
          {
            "astId": 5905,
            "contract": "contracts/ReputationSystem.sol:ReputationSystem",
            "label": "totalScore",
            "offset": 0,
            "slot": "0",
            "type": "t_uint256"
          },
          {
            "astId": 5907,
            "contract": "contracts/ReputationSystem.sol:ReputationSystem",
            "label": "lastUpdateTimestamp",
            "offset": 0,
            "slot": "1",
            "type": "t_uint256"
          },
          {
            "astId": 5909,
            "contract": "contracts/ReputationSystem.sol:ReputationSystem",
            "label": "dailyEarnings",
            "offset": 0,
            "slot": "2",
            "type": "t_uint256"
          },
          {
            "astId": 5911,
            "contract": "contracts/ReputationSystem.sol:ReputationSystem",
            "label": "lastEarningsReset",
            "offset": 0,
            "slot": "3",
            "type": "t_uint256"
          },
          {
            "astId": 5915,
            "contract": "contracts/ReputationSystem.sol:ReputationSystem",
            "label": "actionCompleted",
            "offset": 0,
            "slot": "4",
            "type": "t_mapping(t_bytes32,t_bool)"
          },
          {
            "astId": 5917,
            "contract": "contracts/ReputationSystem.sol:ReputationSystem",
            "label": "totalReports",
            "offset": 0,
            "slot": "5",
            "type": "t_uint256"
          },
          {
            "astId": 5919,
            "contract": "contracts/ReputationSystem.sol:ReputationSystem",
            "label": "verifiedReports",
            "offset": 0,
            "slot": "6",
            "type": "t_uint256"
          },
          {
            "astId": 5921,
            "contract": "contracts/ReputationSystem.sol:ReputationSystem",
            "label": "totalVerifications",
            "offset": 0,
            "slot": "7",
            "type": "t_uint256"
          },
          {
            "astId": 5923,
            "contract": "contracts/ReputationSystem.sol:ReputationSystem",
            "label": "successfulVerifications",
            "offset": 0,
            "slot": "8",
            "type": "t_uint256"
          },
          {
            "astId": 5925,
            "contract": "contracts/ReputationSystem.sol:ReputationSystem",
            "label": "votingParticipation",
            "offset": 0,
            "slot": "9",
            "type": "t_uint256"
          }
        ],
        "numberOfBytes": "320"
      },
      "t_uint256": {
        "encoding": "inplace",
        "label": "uint256",
        "numberOfBytes": "32"
      }
    }
  }
}