{
  "address": "0x593C0cbA6a0e377d7BcB118AEeb691955db82078",
  "abi": [
    {
      "inputs": [
        {
          "internalType": "address",
          "name": "initialOwner",
          "type": "address"
        },
        {
          "internalType": "address",
          "name": "_projectRegistry",
          "type": "address"
        },
        {
          "internalType": "address",
          "name": "_citizenRegistry",
          "type": "address"
        },
        {
          "internalType": "uint256",
          "name": "_initialBudget",
          "type": "uint256"
        }
      ],
      "stateMutability": "nonpayable",
      "type": "constructor"
    },
    {
      "inputs": [
        {
          "internalType": "address",
          "name": "owner",
          "type": "address"
        }
      ],
      "name": "OwnableInvalidOwner",
      "type": "error"
    },
    {
      "inputs": [
        {
          "internalType": "address",
          "name": "account",
          "type": "address"
        }
      ],
      "name": "OwnableUnauthorizedAccount",
      "type": "error"
    },
    {
      "inputs": [],
      "name": "ReentrancyGuardReentrantCall",
      "type": "error"
    },
    {
      "anonymous": false,
      "inputs": [
        {
          "indexed": false,
          "internalType": "uint256",
          "name": "previousTotal",
          "type": "uint256"
        },
        {
          "indexed": false,
          "internalType": "uint256",
          "name": "newTotal",
          "type": "uint256"
        },
        {
          "indexed": true,
          "internalType": "address",
          "name": "updatedBy",
          "type": "address"
        }
      ],
      "name": "BudgetUpdated",
      "type": "event"
    },
    {
      "anonymous": false,
      "inputs": [
        {
          "indexed": true,
          "internalType": "uint256",
          "name": "contributionId",
          "type": "uint256"
        },
        {
          "indexed": true,
          "internalType": "address",
          "name": "donor",
          "type": "address"
        },
        {
          "indexed": false,
          "internalType": "uint256",
          "name": "amount",
          "type": "uint256"
        },
        {
          "indexed": true,
          "internalType": "uint256",
          "name": "projectId",
          "type": "uint256"
        }
      ],
      "name": "DonationReceived",
      "type": "event"
    },
    {
      "anonymous": false,
      "inputs": [
        {
          "indexed": false,
          "internalType": "uint256",
          "name": "amount",
          "type": "uint256"
        },
        {
          "indexed": true,
          "internalType": "address",
          "name": "recipient",
          "type": "address"
        },
        {
          "indexed": false,
          "internalType": "string",
          "name": "reason",
          "type": "string"
        },
        {
          "indexed": true,
          "internalType": "address",
          "name": "authorizedBy",
          "type": "address"
        }
      ],
      "name": "EmergencyWithdrawal",
      "type": "event"
    },
    {
      "anonymous": false,
      "inputs": [
        {
          "indexed": true,
          "internalType": "uint256",
          "name": "allocationId",
          "type": "uint256"
        },
        {
          "indexed": true,
          "internalType": "uint256",
          "name": "projectId",
          "type": "uint256"
        },
        {
          "indexed": false,
          "internalType": "uint256",
          "name": "amount",
          "type": "uint256"
        },
        {
          "indexed": false,
          "internalType": "enum TreasuryFundTracking.FundSource",
          "name": "source",
          "type": "uint8"
        },
        {
          "indexed": true,
          "internalType": "address",
          "name": "authorizedBy",
          "type": "address"
        }
      ],
      "name": "FundsAllocated",
      "type": "event"
    },
    {
      "anonymous": false,
      "inputs": [
        {
          "indexed": true,
          "internalType": "address",
          "name": "previousOwner",
          "type": "address"
        },
        {
          "indexed": true,
          "internalType": "address",
          "name": "newOwner",
          "type": "address"
        }
      ],
      "name": "OwnershipTransferred",
      "type": "event"
    },
    {
      "anonymous": false,
      "inputs": [
        {
          "indexed": true,
          "internalType": "uint256",
          "name": "transactionId",
          "type": "uint256"
        },
        {
          "indexed": true,
          "internalType": "uint256",
          "name": "projectId",
          "type": "uint256"
        },
        {
          "indexed": false,
          "internalType": "uint256",
          "name": "amount",
          "type": "uint256"
        },
        {
          "indexed": false,
          "internalType": "enum TreasuryFundTracking.TransactionType",
          "name": "transactionType",
          "type": "uint8"
        },
        {
          "indexed": true,
          "internalType": "address",
          "name": "recipient",
          "type": "address"
        }
      ],
      "name": "TransactionRecorded",
      "type": "event"
    },
    {
      "anonymous": false,
      "inputs": [
        {
          "indexed": true,
          "internalType": "uint256",
          "name": "transactionId",
          "type": "uint256"
        },
        {
          "indexed": true,
          "internalType": "address",
          "name": "verifiedBy",
          "type": "address"
        },
        {
          "indexed": false,
          "internalType": "uint256",
          "name": "verificationTimestamp",
          "type": "uint256"
        }
      ],
      "name": "TransactionVerified",
      "type": "event"
    },
    {
      "anonymous": false,
      "inputs": [
        {
          "indexed": true,
          "internalType": "address",
          "name": "treasurer",
          "type": "address"
        },
        {
          "indexed": false,
          "internalType": "bool",
          "name": "authorized",
          "type": "bool"
        },
        {
          "indexed": true,
          "internalType": "address",
          "name": "authorizedBy",
          "type": "address"
        }
      ],
      "name": "TreasurerAuthorized",
      "type": "event"
    },
    {
      "inputs": [
        {
          "internalType": "uint256",
          "name": "_projectId",
          "type": "uint256"
        },
        {
          "internalType": "uint256",
          "name": "_amount",
          "type": "uint256"
        },
        {
          "internalType": "enum TreasuryFundTracking.FundSource",
          "name": "_source",
          "type": "uint8"
        },
        {
          "internalType": "string",
          "name": "_ipfsDescriptionHash",
          "type": "string"
        },
        {
          "internalType": "string",
          "name": "_documentHash",
          "type": "string"
        }
      ],
      "name": "allocateFundsToProject",
      "outputs": [],
      "stateMutability": "nonpayable",
      "type": "function"
    },
    {
      "inputs": [
        {
          "internalType": "uint256",
          "name": "",
          "type": "uint256"
        }
      ],
      "name": "allocations",
      "outputs": [
        {
          "internalType": "uint256",
          "name": "allocationId",
          "type": "uint256"
        },
        {
          "internalType": "uint256",
          "name": "projectId",
          "type": "uint256"
        },
        {
          "internalType": "uint256",
          "name": "amount",
          "type": "uint256"
        },
        {
          "internalType": "enum TreasuryFundTracking.FundSource",
          "name": "source",
          "type": "uint8"
        },
        {
          "internalType": "address",
          "name": "authorizedBy",
          "type": "address"
        },
        {
          "internalType": "uint256",
          "name": "timestamp",
          "type": "uint256"
        },
        {
          "internalType": "string",
          "name": "ipfsDescriptionHash",
          "type": "string"
        },
        {
          "internalType": "bool",
          "name": "isActive",
          "type": "bool"
        },
        {
          "internalType": "string",
          "name": "documentHash",
          "type": "string"
        }
      ],
      "stateMutability": "view",
      "type": "function"
    },
    {
      "inputs": [
        {
          "internalType": "address",
          "name": "_treasurer",
          "type": "address"
        },
        {
          "internalType": "bool",
          "name": "_authorized",
          "type": "bool"
        }
      ],
      "name": "authorizeTreasurer",
      "outputs": [],
      "stateMutability": "nonpayable",
      "type": "function"
    },
    {
      "inputs": [
        {
          "internalType": "address",
          "name": "",
          "type": "address"
        }
      ],
      "name": "authorizedTreasurers",
      "outputs": [
        {
          "internalType": "bool",
          "name": "",
          "type": "bool"
        }
      ],
      "stateMutability": "view",
      "type": "function"
    },
    {
      "inputs": [],
      "name": "citizenRegistry",
      "outputs": [
        {
          "internalType": "contract CitizenIdentityRegistry",
          "name": "",
          "type": "address"
        }
      ],
      "stateMutability": "view",
      "type": "function"
    },
    {
      "inputs": [
        {
          "internalType": "uint256",
          "name": "",
          "type": "uint256"
        }
      ],
      "name": "contributions",
      "outputs": [
        {
          "internalType": "uint256",
          "name": "contributionId",
          "type": "uint256"
        },
        {
          "internalType": "address",
          "name": "donor",
          "type": "address"
        },
        {
          "internalType": "uint256",
          "name": "amount",
          "type": "uint256"
        },
        {
          "internalType": "uint256",
          "name": "projectId",
          "type": "uint256"
        },
        {
          "internalType": "uint256",
          "name": "timestamp",
          "type": "uint256"
        },
        {
          "internalType": "string",
          "name": "ipfsMessageHash",
          "type": "string"
        },
        {
          "internalType": "bool",
          "name": "isAnonymous",
          "type": "bool"
        },
        {
          "internalType": "bool",
          "name": "isRefunded",
          "type": "bool"
        }
      ],
      "stateMutability": "view",
      "type": "function"
    },
    {
      "inputs": [
        {
          "internalType": "address",
          "name": "",
          "type": "address"
        },
        {
          "internalType": "uint256",
          "name": "",
          "type": "uint256"
        }
      ],
      "name": "donorContributions",
      "outputs": [
        {
          "internalType": "uint256",
          "name": "",
          "type": "uint256"
        }
      ],
      "stateMutability": "view",
      "type": "function"
    },
    {
      "inputs": [
        {
          "internalType": "uint256",
          "name": "_amount",
          "type": "uint256"
        },
        {
          "internalType": "address payable",
          "name": "_recipient",
          "type": "address"
        },
        {
          "internalType": "string",
          "name": "_reason",
          "type": "string"
        }
      ],
      "name": "emergencyWithdraw",
      "outputs": [],
      "stateMutability": "nonpayable",
      "type": "function"
    },
    {
      "inputs": [],
      "name": "getBudgetOverview",
      "outputs": [
        {
          "internalType": "uint256",
          "name": "totalBudget",
          "type": "uint256"
        },
        {
          "internalType": "uint256",
          "name": "allocatedBudget",
          "type": "uint256"
        },
        {
          "internalType": "uint256",
          "name": "spentBudget",
          "type": "uint256"
        },
        {
          "internalType": "uint256",
          "name": "availableBudget",
          "type": "uint256"
        },
        {
          "internalType": "uint256",
          "name": "utilizationPercentage",
          "type": "uint256"
        }
      ],
      "stateMutability": "view",
      "type": "function"
    },
    {
      "inputs": [],
      "name": "getContractBalance",
      "outputs": [
        {
          "internalType": "uint256",
          "name": "",
          "type": "uint256"
        }
      ],
      "stateMutability": "view",
      "type": "function"
    },
    {
      "inputs": [
        {
          "internalType": "address",
          "name": "_donor",
          "type": "address"
        }
      ],
      "name": "getDonorContributions",
      "outputs": [
        {
          "internalType": "uint256[]",
          "name": "",
          "type": "uint256[]"
        }
      ],
      "stateMutability": "view",
      "type": "function"
    },
    {
      "inputs": [
        {
          "internalType": "uint256",
          "name": "_projectId",
          "type": "uint256"
        }
      ],
      "name": "getProjectAllocations",
      "outputs": [
        {
          "internalType": "uint256[]",
          "name": "",
          "type": "uint256[]"
        }
      ],
      "stateMutability": "view",
      "type": "function"
    },
    {
      "inputs": [
        {
          "internalType": "uint256",
          "name": "_projectId",
          "type": "uint256"
        }
      ],
      "name": "getProjectFinancials",
      "outputs": [
        {
          "internalType": "uint256",
          "name": "allocatedAmount",
          "type": "uint256"
        },
        {
          "internalType": "uint256",
          "name": "spentAmount",
          "type": "uint256"
        },
        {
          "internalType": "uint256",
          "name": "availableAmount",
          "type": "uint256"
        },
        {
          "internalType": "uint256",
          "name": "transactionCount",
          "type": "uint256"
        },
        {
          "internalType": "uint256",
          "name": "utilizationPercentage",
          "type": "uint256"
        }
      ],
      "stateMutability": "view",
      "type": "function"
    },
    {
      "inputs": [
        {
          "internalType": "uint256",
          "name": "_projectId",
          "type": "uint256"
        }
      ],
      "name": "getProjectTransactions",
      "outputs": [
        {
          "internalType": "uint256[]",
          "name": "",
          "type": "uint256[]"
        }
      ],
      "stateMutability": "view",
      "type": "function"
    },
    {
      "inputs": [],
      "name": "getTotalContributions",
      "outputs": [
        {
          "internalType": "uint256",
          "name": "totalAmount",
          "type": "uint256"
        },
        {
          "internalType": "uint256",
          "name": "totalCount",
          "type": "uint256"
        }
      ],
      "stateMutability": "view",
      "type": "function"
    },
    {
      "inputs": [],
      "name": "getUnverifiedTransactions",
      "outputs": [
        {
          "internalType": "uint256[]",
          "name": "",
          "type": "uint256[]"
        }
      ],
      "stateMutability": "view",
      "type": "function"
    },
    {
      "inputs": [],
      "name": "owner",
      "outputs": [
        {
          "internalType": "address",
          "name": "",
          "type": "address"
        }
      ],
      "stateMutability": "view",
      "type": "function"
    },
    {
      "inputs": [
        {
          "internalType": "uint256",
          "name": "",
          "type": "uint256"
        },
        {
          "internalType": "uint256",
          "name": "",
          "type": "uint256"
        }
      ],
      "name": "projectAllocations",
      "outputs": [
        {
          "internalType": "uint256",
          "name": "",
          "type": "uint256"
        }
      ],
      "stateMutability": "view",
      "type": "function"
    },
    {
      "inputs": [],
      "name": "projectRegistry",
      "outputs": [
        {
          "internalType": "contract GovernmentProjectRegistry",
          "name": "",
          "type": "address"
        }
      ],
      "stateMutability": "view",
      "type": "function"
    },
    {
      "inputs": [
        {
          "internalType": "uint256",
          "name": "",
          "type": "uint256"
        },
        {
          "internalType": "uint256",
          "name": "",
          "type": "uint256"
        }
      ],
      "name": "projectTransactions",
      "outputs": [
        {
          "internalType": "uint256",
          "name": "",
          "type": "uint256"
        }
      ],
      "stateMutability": "view",
      "type": "function"
    },
    {
      "inputs": [
        {
          "internalType": "uint256",
          "name": "_projectId",
          "type": "uint256"
        },
        {
          "internalType": "string",
          "name": "_ipfsMessageHash",
          "type": "string"
        },
        {
          "internalType": "bool",
          "name": "_isAnonymous",
          "type": "bool"
        }
      ],
      "name": "receiveDonation",
      "outputs": [],
      "stateMutability": "payable",
      "type": "function"
    },
    {
      "inputs": [
        {
          "internalType": "uint256",
          "name": "_projectId",
          "type": "uint256"
        },
        {
          "internalType": "uint256",
          "name": "_amount",
          "type": "uint256"
        },
        {
          "internalType": "enum TreasuryFundTracking.TransactionType",
          "name": "_transactionType",
          "type": "uint8"
        },
        {
          "internalType": "enum TreasuryFundTracking.FundSource",
          "name": "_source",
          "type": "uint8"
        },
        {
          "internalType": "address",
          "name": "_recipient",
          "type": "address"
        },
        {
          "internalType": "string",
          "name": "_ipfsDescriptionHash",
          "type": "string"
        },
        {
          "internalType": "string",
          "name": "_receiptHash",
          "type": "string"
        }
      ],
      "name": "recordTransaction",
      "outputs": [],
      "stateMutability": "nonpayable",
      "type": "function"
    },
    {
      "inputs": [
        {
          "internalType": "uint256",
          "name": "_contributionId",
          "type": "uint256"
        }
      ],
      "name": "refundDonation",
      "outputs": [],
      "stateMutability": "nonpayable",
      "type": "function"
    },
    {
      "inputs": [],
      "name": "renounceOwnership",
      "outputs": [],
      "stateMutability": "nonpayable",
      "type": "function"
    },
    {
      "inputs": [
        {
          "internalType": "uint256",
          "name": "",
          "type": "uint256"
        }
      ],
      "name": "transactions",
      "outputs": [
        {
          "internalType": "uint256",
          "name": "transactionId",
          "type": "uint256"
        },
        {
          "internalType": "uint256",
          "name": "projectId",
          "type": "uint256"
        },
        {
          "internalType": "uint256",
          "name": "amount",
          "type": "uint256"
        },
        {
          "internalType": "enum TreasuryFundTracking.TransactionType",
          "name": "transactionType",
          "type": "uint8"
        },
        {
          "internalType": "enum TreasuryFundTracking.FundSource",
          "name": "source",
          "type": "uint8"
        },
        {
          "internalType": "address",
          "name": "authorizedBy",
          "type": "address"
        },
        {
          "internalType": "address",
          "name": "recipient",
          "type": "address"
        },
        {
          "internalType": "uint256",
          "name": "timestamp",
          "type": "uint256"
        },
        {
          "internalType": "string",
          "name": "ipfsDescriptionHash",
          "type": "string"
        },
        {
          "internalType": "string",
          "name": "receiptHash",
          "type": "string"
        },
        {
          "internalType": "bool",
          "name": "isVerified",
          "type": "bool"
        },
        {
          "internalType": "address",
          "name": "verifiedBy",
          "type": "address"
        },
        {
          "internalType": "uint256",
          "name": "verificationTimestamp",
          "type": "uint256"
        }
      ],
      "stateMutability": "view",
      "type": "function"
    },
    {
      "inputs": [
        {
          "internalType": "uint256",
          "name": "_fromProjectId",
          "type": "uint256"
        },
        {
          "internalType": "uint256",
          "name": "_toProjectId",
          "type": "uint256"
        },
        {
          "internalType": "uint256",
          "name": "_amount",
          "type": "uint256"
        },
        {
          "internalType": "string",
          "name": "_reason",
          "type": "string"
        }
      ],
      "name": "transferFundsBetweenProjects",
      "outputs": [],
      "stateMutability": "nonpayable",
      "type": "function"
    },
    {
      "inputs": [
        {
          "internalType": "address",
          "name": "newOwner",
          "type": "address"
        }
      ],
      "name": "transferOwnership",
      "outputs": [],
      "stateMutability": "nonpayable",
      "type": "function"
    },
    {
      "inputs": [
        {
          "internalType": "uint256",
          "name": "_newTotalBudget",
          "type": "uint256"
        }
      ],
      "name": "updateBudget",
      "outputs": [],
      "stateMutability": "nonpayable",
      "type": "function"
    },
    {
      "inputs": [
        {
          "internalType": "uint256",
          "name": "_transactionId",
          "type": "uint256"
        }
      ],
      "name": "verifyTransaction",
      "outputs": [],
      "stateMutability": "nonpayable",
      "type": "function"
    },
    {
      "stateMutability": "payable",
      "type": "receive"
    }
  ],
  "transactionHash": "0x472852585093237adb6dd140d558c2f3fc18be670f200d485974cf6888545300",
  "args": [
    "0x847118E06a68716b385a86a50250C598D33Ca68C",
    "0xA2B1623a4AdE119f510Bd33493D70A246737bcD8",
    "0x9F4Bc4cb48e60871768b4cFB9CF9C53381063652",
    "1000000000000000000000"
  ],
  "numDeployments": 1,
  "solcInputHash": "2510a4953b833be54b78475d9a98dd2b",
  "bytecode": "0x60c034620001f857601f620039c338819003918201601f191683019291906001600160401b03841183851017620001fd578160809284926040968752833981010312620001f857620000518162000213565b6200005f6020830162000213565b9060606200006f85850162000213565b930151926001600160a01b03918216928315620001e057600080546001600160a01b031981168617825587519585939290918416907f8be0079c531659141344cd1fd0a4f28419497f9722a3daafe3b4186f6b6457e09080a3600180551692831562000193575016908115620001445760805260a052806005556008555161379a9081620002298239608051818181610a5101528181610edf01528181610fde01528181611b1501528181611e6f01528181612459015281816125760152612b86015260a051818181612dc101526136dc0152f35b835162461bcd60e51b815260206004820152602260248201527f54726561737572793a20496e76616c696420636974697a656e20726567697374604482015261727960f01b6064820152608490fd5b62461bcd60e51b815260206004820152602260248201527f54726561737572793a20496e76616c69642070726f6a65637420726567697374604482015261727960f01b6064820152608490fd5b8551631e4fbdf760e01b815260006004820152602490fd5b600080fd5b634e487b7160e01b600052604160045260246000fd5b51906001600160a01b0382168203620001f85756fe6080604052600436101561028b575b361561001957600080fd5b61002460045461359d565b80600455604051610034816131cc565b818152602080820192338452604083013481526060840190600094858352608081014281526040519061006682613204565b87825260a0830191825260c0830188815260e08401898152878a52600d895260408a20945185559951600180860180546001600160a01b0319166001600160a01b0393909316929092179091559451600285015594516003840155516004830155518051979260058301916001600160401b038a11610277576100e98354613192565b601f8111610231575b508790601f8b116001146101c4579980806101439694600696948d9e61015a9c9d9e946101b9575b50501b916000199060031b1c19161790555b0192511515839060ff801983541691151516179055565b51815461ff00191690151560081b61ff0016179055565b610166346005546135b8565b600555610175346008546135b8565b6008553383526010825261018c81604085206135d2565b7f3dbea1b4ce5f95137fdcac9b1d685825c3d70ace830df1ca5a181d3887add410604051923484523393a4005b01519250388061011a565b838a52888a209a9190601f1983168b5b81811061021c57509b61014396949284926006979561015a9c9d9e9f10610203575b505050811b01905561012c565b015160001960f88460031b161c191690553880806101f6565b838301518e559c85019c928b01928b016101d4565b838a52888a20601f8c0160051c8101918a8d1061026d575b601f0160051c019083905b8281106102625750506100f2565b8b8155018390610254565b9091508190610249565b634e487b7160e01b89526041600452602489fd5b60003560e01c80630a2642bf146130d25780631cee070014613032578063332b888d14612df0578063386ca89d14612dab5780633d17b92114612cca57806351e072d614612bb55780635a33d8dc14612b705780636f9fb98a14612b54578063709cacc214612997578063715018a61461293e5780637cd22238146127c75780638d6072d0146127885780638da5cb5b1461275f5780638df9b6b8146126e75780639ace38c2146125e7578063a65de2b5146124e5578063a696596214611f4a578063a9753d0214611bd0578063be7d6e7414611b86578063c0c55b1714611a78578063c57506f114610f50578063cd5dc3c614610dfe578063ddf556d014610d85578063ec0d585914610c74578063f299f7c714610be7578063f2fde38b14610b5e578063f62cf60114610b2d578063fc1ce66c14610aee5763ff5d0ba60361000e5734610ac15760e0366003190112610ac15760066044351015610ac15760056064351015610ac1576084356001600160a01b0381168103610ac15760a4356001600160401b038111610ac157610428903690600401613349565b9060c4356001600160401b038111610ac157610448903690600401613349565b9133600052601160205260ff604060002054168015610ada575b61046b90613441565b600435151580610a3b575b61047f90613498565b61048761360c565b61049460243515156134e4565b6001600160a01b038216156109ea576104af81511515613540565b600160443514610930575b6104c560035461359d565b9283600355604051916104d7836131e8565b848352600435602084015260243560408401526044356060840152610501606435608085016135ac565b3360a084015260018060a01b03841660c08401524260e084015261010083015261012082015260006101408201526000610160820152600061018082015282600052600c6020526040600020908051825560208101516001830155604081015160028301556060810151600681101561091a576003830154608083015190600582101561091a5761ff009060ff62010000600160b01b0360a087015160101b1694169069ffffffffffffffffffff60b01b16179160081b16171760038301556004820160018060a01b0360c0830151166001600160601b0360a01b82541617905560e081015160058301556101008101518051906001600160401b0382116108345781906106126006860154613192565b601f81116108c7575b50602090601f83116001146108555760009261084a575b50508160011b916000199060031b1c19161760068301555b6101208101518051906001600160401b0382116108345761066e6007850154613192565b601f81116107ed575b50602090601f8311600114610777579180600994926101809460009261076c575b50508160011b916000199060031b1c19161760078501555b6106fc600885016106d46101408401511515829060ff801983541691151516179055565b6101608301518154610100600160a81b03191660089190911b610100600160a81b0316179055565b0151910155600435600052600f60205261071a8260406000206135d2565b604051906024358252610732602083016044356133da565b6001600160a01b031691600435917ff0d5f39a069c9c5d4c97601866cd53721f8fa719ab48e0fe32cd135d3241a29e90604090a460018055005b015190503880610698565b906007850160005260206000209160005b601f19851681106107d5575092600994926001926101809583601f198116106107bc575b505050811b0160078501556106b0565b015160001960f88460031b161c191690553880806107ac565b91926020600181928685015181550194019201610788565b600785016000526020600020601f840160051c81016020851061082d575b601f830160051c82018110610821575050610677565b6000815560010161080b565b508061080b565b634e487b7160e01b600052604160045260246000fd5b015190503880610632565b9250600685016000526020600020906000935b601f19841685106108ac576001945083601f19811610610893575b505050811b01600683015561064a565b015160001960f88460031b161c19169055388080610883565b81810151835560209485019460019093019290910190610868565b909150600685016000526020600020601f840160051c810160208510610913575b90849392915b601f830160051c8201811061090457505061061b565b600081558594506001016108ee565b50806108e8565b634e487b7160e01b600052602160045260246000fd5b6004356000526009602052604060002054600a60205261095960243591604060002054906135c5565b106109935761096c6024356007546135b8565b600755600435600052600a602052604060002061098c60243582546135b8565b90556104ba565b60405162461bcd60e51b815260206004820152602960248201527f54726561737572793a20496e73756666696369656e742070726f6a6563742061604482015268363637b1b0ba34b7b760b91b6064820152608490fd5b60405162461bcd60e51b815260206004820152602360248201527f54726561737572793a20496e76616c696420726563697069656e74206164647260448201526265737360e81b6064820152608490fd5b506040516340939cd160e11b81526020816004817f00000000000000000000000000000000000000000000000000000000000000006001600160a01b03165afa8015610ace57600090610a95575b60043511159050610476565b506020813d602011610ac6575b81610aaf6020938361321f565b81010312610ac15761047f9051610a89565b600080fd5b3d9150610aa2565b6040513d6000823e3d90fd5b506000546001600160a01b03163314610462565b34610ac157610afc366133ff565b90600052600f60205260406000208054821015610ac157602091610b1f916133e7565b90546040519160031b1c8152f35b34610ac157610b3b366133ff565b90600052600e60205260406000208054821015610ac157602091610b1f916133e7565b34610ac1576020366003190112610ac157610b77613333565b610b7f613415565b6001600160a01b03908116908115610bce57600054826001600160601b0360a01b821617600055167f8be0079c531659141344cd1fd0a4f28419497f9722a3daafe3b4186f6b6457e0600080a3005b604051631e4fbdf760e01b815260006004820152602490fd5b34610ac1576000366003190112610ac1576005548015610c6c5760075461271090818102918183041490151715610c565781610c229161367b565b905b600654600754600854604080519485526020850193909352918301526060820152608081019190915260a090f35b0390f35b634e487b7160e01b600052601160045260246000fd5b600090610c24565b34610ac1576000366003190112610ac15760006001600354905b81811115610d475750610ca08261369b565b91610cae604051938461321f565b808352610cbd601f199161369b565b016020903682850137600060015b83811115610ce15760405180610c52878261339f565b80600052600c835260ff6008604060002001541615610d09575b610d049061359d565b610ccb565b908451811015610d3157610d29818385610d049460051b8901015261359d565b919050610cfb565b634e487b7160e01b600052603260045260246000fd5b80600052600c60205260ff6008604060002001541615610d70575b610d6b9061359d565b610c8e565b91610d7d610d6b9161359d565b929050610d62565b34610ac1576000366003190112610ac157600454600060015b82811115610db6575060409182519182526020820152f35b80600052600d602052604060002060ff600682015460081c1615610de4575b50610ddf9061359d565b610d9e565b610ddf91926002610df7920154906135b8565b9190610dd5565b34610ac157602080600319360112610ac1576004359081151580610eca575b610e2690613498565b816000526009815260406000205490600a815260406000205492838311600014610ec357610e5484846135c5565b8315610eb557612710808602908682041486151715610c5657610c5293610e7d86600f9361367b565b935b6000525260406000205490604051958695869192608093969594919660a084019784526020840152604083015260608201520152565b600f610c5293600093610e7f565b6000610e54565b506040516340939cd160e11b815281816004817f00000000000000000000000000000000000000000000000000000000000000006001600160a01b03165afa8015610ace57600090610f21575b8311159050610e1d565b508181813d8311610f49575b610f37818361321f565b81010312610ac157610e269051610f17565b503d610f2d565b34610ac1576080366003190112610ac1576064356001600160401b038111610ac157610f80903690600401613349565b33600052601160205260ff604060002054168015611a64575b610fa290613441565b610faa61360c565b60243560043514611a0d57610fce90610fc660443515156134e4565b51151561362f565b6040516340939cd160e11b8082527f00000000000000000000000000000000000000000000000000000000000000006001600160a01b031691602081600481865afa908115610ace576000916119db575b50600435116119965760209060046040518094819382525afa908115610ace57600091611964575b506024351161191f576004356000526009602052604060002054600a60205261107960443591604060002054906135c5565b106118c3576004356000526009602052604060002061109b60443582546135c5565b9055602435600052600960205260406000206110ba60443582546135b8565b90556110c760035461359d565b80600355604051906110d8826131e8565b8082526004356020830152604435604083015260036060830152600060808301523360a08301523060c08301524260e083015260405161111781613204565b6000815261010083015260405161112d81613204565b600081526101208301526001610140830152336101608301524261018083015280600052600c60205260406000208251815560208301516001820155604083015160028201556060830151600681101561091a576003820154608085015190600582101561091a5761ff009060ff60a088015162010000600160b01b039060101b1694169069ffffffffffffffffffff60b01b16179160081b161717600382015560018060a01b0360c0840151166001600160601b0360a01b60048301541617600482015560e083015160058201556101008301519283516001600160401b038111610834576112206006840154613192565b601f811161187c575b506020601f821160011461180d578192939495600092611802575b50508160011b916000199060031b1c19161760068301555b6101208101518051906001600160401b038211610834576112806007850154613192565b601f81116117bb575b50602090601f8311600114611745579180600994926101809460009261173a575b50508160011b916000199060031b1c19161760078501555b6112e6600885016106d46101408401511515829060ff801983541691151516179055565b0151910155600435600052600f6020526113048160406000206135d2565b61130f60035461359d565b8060035560405161131f816131e8565b8181526024356020820152604435604082015260006060820152600060808201523360a08201523060c08201524260e082015260405161135e81613204565b6000815261010082015260405161137481613204565b600081526101208201526001610140820152336101608201524261018082015281600052600c6020526040600020908051825560208101516001830155604081015160028301556060810151600681101561091a576003830154608083015190600582101561091a5761ff009060ff62010000600160b01b0360a087015160101b1694169069ffffffffffffffffffff60b01b16179160081b16171760038301556004820160018060a01b0360c0830151166001600160601b0360a01b82541617905560e081015160058301556101008101518051906001600160401b0382116108345781906114676006860154613192565b601f81116116e7575b50602090601f83116001146116755760009261166a575b50508160011b916000199060031b1c19161760068301555b6101208101518051906001600160401b038211610834576114c36007850154613192565b601f8111611623575b50602090601f83116001146115ad57918060099492610180946000926115a2575b50508160011b916000199060031b1c19161760078501555b611529600885016106d46101408401511515829060ff801983541691151516179055565b0151910155602435600052600f6020526115478160406000206135d2565b604051916044358352600360208401527ff0d5f39a069c9c5d4c97601866cd53721f8fa719ab48e0fe32cd135d3241a29e92309184604060043593a4604051906044358252600060208301523092604060243593a460018055005b0151905088806114ed565b906007850160005260206000209160005b601f198516811061160b575092600994926001926101809583601f198116106115f2575b505050811b016007850155611505565b015160001960f88460031b161c191690558880806115e2565b919260206001819286850151815501940192016115be565b600785016000526020600020601f840160051c810160208510611663575b601f830160051c820181106116575750506114cc565b60008155600101611641565b5080611641565b015190508680611487565b9250600685016000526020600020906000935b601f19841685106116cc576001945083601f198116106116b3575b505050811b01600683015561149f565b015160001960f88460031b161c191690558680806116a3565b81810151835560209485019460019093019290910190611688565b909150600685016000526020600020601f840160051c810160208510611733575b90849392915b601f830160051c82018110611724575050611470565b6000815585945060010161170e565b5080611708565b0151905087806112aa565b906007850160005260206000209160005b601f19851681106117a3575092600994926001926101809583601f1981161061178a575b505050811b0160078501556112c2565b015160001960f88460031b161c1916905587808061177a565b91926020600181928685015181550194019201611756565b600785016000526020600020601f840160051c8101602085106117fb575b601f830160051c820181106117ef575050611289565b600081556001016117d9565b50806117d9565b015190508580611244565b6006840160005260206000209060005b601f1984168110611864575060019394959683601f1981161061184b575b505050811b01600683015561125c565b015160001960f88460031b161c1916905585808061183b565b9091602060018192858b01518155019301910161181d565b600684016000526020600020601f830160051c8101602084106118bc575b601f830160051c820181106118b0575050611229565b6000815560010161189a565b508061189a565b60405162461bcd60e51b815260206004820152602e60248201527f54726561737572793a20496e73756666696369656e742066756e647320696e2060448201526d1cdbdd5c98d9481c1c9bda9958dd60921b6064820152608490fd5b60405162461bcd60e51b815260206004820152601c60248201527f54726561737572793a20496e76616c696420746f2070726f6a656374000000006044820152606490fd5b90506020813d60201161198e575b8161197f6020938361321f565b81010312610ac1575181611047565b3d9150611972565b60405162461bcd60e51b815260206004820152601e60248201527f54726561737572793a20496e76616c69642066726f6d2070726f6a65637400006044820152606490fd5b90506020813d602011611a05575b816119f66020938361321f565b81010312610ac157518361101f565b3d91506119e9565b60405162461bcd60e51b815260206004820152602960248201527f54726561737572793a2043616e6e6f74207472616e7366657220746f2073616d60448201526819481c1c9bda9958dd60ba1b6064820152608490fd5b506000546001600160a01b03163314610f99565b34610ac157602080600319360112610ac15760043580151580611b00575b611a9f90613498565b600052600f8152604060002090604051908181845491828152019360005281600020916000905b828210611ae957610c5285611add8189038261321f565b6040519182918261339f565b835486529485019460019384019390910190611ac6565b506040516340939cd160e11b815282816004817f00000000000000000000000000000000000000000000000000000000000000006001600160a01b03165afa8015610ace57600090611b57575b8211159050611a96565b508281813d8311611b7f575b611b6d818361321f565b81010312610ac157611a9f9051611b4d565b503d611b63565b34610ac1576040366003190112610ac157611b9f613333565b6001600160a01b0316600090815260106020526040902080546024359190821015610ac157602091610b1f916133e7565b6060366003190112610ac1576001600160401b03600435602435828111610ac157611bff903690600401613349565b91604435801515809103610ac157611c1561360c565b3415611eec5782611e5a575b611c2c60045461359d565b908160045560405192611c3e846131cc565b82845260209384810196338852604082019234845260608301888152608084019042825260a0850193845260c0850196875260e08501956000875288600052600d8a5260406000209551865560019b8c87019060018060a01b039051166001600160601b0360a01b825416179055516002860155516003850155516004840155600583019151805191821161083457611cd78354613192565b601f8111611e11575b508790601f8311600114611d9e579282600693611d309897969361014396600092611d93575b5050600019600383901b1c1916908c1b1790550192511515839060ff801983541691151516179055565b611d3c346005546135b8565b600555611d4b346008546135b8565b6008553360005260108252611d648160406000206135d2565b7f3dbea1b4ce5f95137fdcac9b1d685825c3d70ace830df1ca5a181d3887add410604051923484523393a48055005b015190508d80611d06565b8a9291601f19831691856000528a6000209260005b8c828210611dfb57505092600695928592611d309b9a9996610143999610611de257505050811b01905561012c565b015160001960f88460031b161c191690558d80806101f6565b8385015186558f97909501949384019301611db3565b8360005288600020601f840160051c8101918a8510611e50575b601f0160051c01908b905b828110611e44575050611ce0565b60008155018b90611e36565b9091508190611e2b565b6040516340939cd160e11b81526020816004817f00000000000000000000000000000000000000000000000000000000000000006001600160a01b03165afa8015610ace57600090611eb9575b611eb49150841115613498565b611c21565b506020813d8211611ee4575b81611ed26020938361321f565b81010312610ac157611eb49051611ea7565b3d9150611ec5565b60405162461bcd60e51b815260206004820152603060248201527f54726561737572793a20446f6e6174696f6e20616d6f756e74206d757374206260448201526f0652067726561746572207468616e20360841b6064820152608490fd5b34610ac15760a0366003190112610ac15760056044351015610ac1576064356001600160401b038111610ac157611f85903690600401613349565b6084356001600160401b038111610ac157611fa4903690600401613349565b33600052601160205260ff6040600020541680156124d1575b611fc690613441565b600435151580612443575b611fda90613498565b611fe261360c565b611fef60243515156134e4565b602435600854106123ee5761200682511515613540565b61201160025461359d565b90816002556040519261012084018481106001600160401b038211176108345760405282845260043560208501526024356040850152612056604435606086016135ac565b3360808501524260a085015260c0840152600160e084015261010083015280600052600b602052604060002082518155602083015160018201556040830151600282015560038101606084015190600582101561091a5780546080860151610100600160a81b0360089190911b1660ff939093166001600160a81b03199091161791909117905560a0830151600482015560c08301519283516001600160401b0381116108345761210a6005840154613192565b601f81116123a7575b506020601f8211600114612333578190610100949596600092612328575b50508160011b916000199060031b1c19161760058401555b61216860e08201511515600685019060ff801983541691151516179055565b01518051906001600160401b038211610834576121886007840154613192565b601f81116122dd575b50602090601f831160011461226f576007929160009183612264575b50508160011b916000199060031b1c1916179101555b6121d16024356006546135b8565b6006556121e26024356008546135c5565b6008556004356000526009602052604060002061220260243582546135b8565b9055600435600052600e60205261221d8160406000206135d2565b6040516024358152612234602082016044356132e6565b33917f520f2e3a2019a45992f7bddea657b0eb1b288c520b36c43e13855d6a45da300c604060043593a460018055005b0151905085806121ad565b90601f198316916007850160005260206000209260005b8181106122c5575091600193918560079694106122ac575b505050811b019101556121c3565b015160001960f88460031b161c1916905585808061229e565b92936020600181928786015181550195019301612286565b600784016000526020600020601f840160051c8101916020851061231e575b601f0160051c01905b8181106123125750612191565b60008155600101612305565b90915081906122fc565b015190508680612131565b6005840160005260206000209560005b601f198416811061238f5750958291610100959697600194601f19811610612376575b505050811b016005840155612149565b015160001960f88460031b161c19169055868080612366565b82820151885560019097019660209283019201612343565b600584016000526020600020601f830160051c8101602084106123e7575b601f830160051c820181106123db575050612113565b600081556001016123c5565b50806123c5565b60405162461bcd60e51b815260206004820152602760248201527f54726561737572793a20496e73756666696369656e7420617661696c61626c6560448201526608189d5919d95d60ca1b6064820152608490fd5b506040516340939cd160e11b81526020816004817f00000000000000000000000000000000000000000000000000000000000000006001600160a01b03165afa8015610ace5760009061249d575b60043511159050611fd1565b506020813d6020116124c9575b816124b76020938361321f565b81010312610ac157611fda9051612491565b3d91506124aa565b506000546001600160a01b03163314611fbd565b34610ac157602080600319360112610ac15760043580151580612561575b61250c90613498565b600052600e8152604060002090604051908181845491828152019360005281600020916000905b82821061254a57610c5285611add8189038261321f565b835486529485019460019384019390910190612533565b506040516340939cd160e11b815282816004817f00000000000000000000000000000000000000000000000000000000000000006001600160a01b03165afa8015610ace576000906125b8575b8211159050612503565b508281813d83116125e0575b6125ce818361321f565b81010312610ac15761250c90516125ae565b503d6125c4565b34610ac1576020366003190112610ac157600435600052600c60205260206040600020805490600181015460028201546126c66003840154916126b760018060a01b0393846004880154166005880154908661264560068b01613240565b9361265260078c01613240565b96600960088d01549c01549a6040519e8f9e8f908152015260408d015261267f60608d0160ff83166133da565b61269260808d0160ff8360081c166132e6565b60101c1660a08b015260c08a015260e08901526101a0806101008a01528801906132f3565b908682036101208801526132f3565b9260ff8116151561014086015260081c166101608401526101808301520390f35b34610ac157602080600319360112610ac1576001600160a01b03612709613333565b1660005260108152604060002090604051908181845491828152019360005281600020916000905b82821061274857610c5285611add8189038261321f565b835486529485019460019384019390910190612731565b34610ac1576000366003190112610ac1576000546040516001600160a01b039091168152602090f35b34610ac1576020366003190112610ac1576001600160a01b036127a9613333565b166000526011602052602060ff604060002054166040519015158152f35b34610ac1576060366003190112610ac1576004356024356001600160a01b03811690819003610ac1576044356001600160401b038111610ac15761280f903690600401613349565b91612818613415565b801561282481156134e4565b82156128f9578147106128a45761283d8451151561362f565b818360009261289a575b600092839283928392f115610ace577ff0ddfd7b832d05a4890925ba2bd44503a487bb111b0f3d82e8332c14d8b2802e906040519081526040602082015280612895339560408301906132f3565b0390a3005b6108fc9250612847565b60405162461bcd60e51b815260206004820152602760248201527f54726561737572793a20496e73756666696369656e7420636f6e74726163742060448201526662616c616e636560c81b6064820152608490fd5b60405162461bcd60e51b815260206004820152601b60248201527f54726561737572793a20496e76616c696420726563697069656e7400000000006044820152606490fd5b34610ac1576000366003190112610ac157612957613415565b600080546001600160a01b0319811682556001600160a01b03167f8be0079c531659141344cd1fd0a4f28419497f9722a3daafe3b4186f6b6457e08280a3005b34610ac1576020366003190112610ac1576004356129b3613415565b80151580612b48575b15612af957600052600d60205260406000206006810180549060ff8260081c16612ab4574790600284018054809310612a5d5760008080809388612a0f88886101008c61ff0019161790556005546135c5565b60055560085482548082118514612a5557612a29916135c5565b600855600101549054906001600160a01b0316828215612a4c575bf115610ace57005b506108fc612a44565b505082612a29565b60405162461bcd60e51b815260206004820152602960248201527f54726561737572793a20496e73756666696369656e742062616c616e636520666044820152681bdc881c99599d5b9960ba1b6064820152608490fd5b60405162461bcd60e51b815260206004820152601a60248201527f54726561737572793a20416c726561647920726566756e6465640000000000006044820152606490fd5b60405162461bcd60e51b815260206004820152602160248201527f54726561737572793a20496e76616c696420636f6e747269627574696f6e20496044820152601160fa1b6064820152608490fd5b506004548111156129bc565b34610ac1576000366003190112610ac157602047604051908152f35b34610ac1576000366003190112610ac1576040517f00000000000000000000000000000000000000000000000000000000000000006001600160a01b03168152602090f35b34610ac1576020366003190112610ac157600435612bd1613415565b6007548110612c70576005549081811115612c3857612bfd612bf5600554836135c5565b6008546135b8565b6008555b8060055560405191825260208201527f212dccf34156d3de433f9b9bbecc243f3d49aeea186f9ff9efcaec09b4cde80d60403392a2005b81811015612c0157612c4a81836135c5565b6008549080821115612c6757612c5f916135c5565b600855612c01565b50506000612c5f565b60405162461bcd60e51b815260206004820152602c60248201527f54726561737572793a204e657720627564676574206c657373207468616e206160448201526b1b1c9958591e481cdc195b9d60a21b6064820152608490fd5b34610ac1576040366003190112610ac157612ce3613333565b60243580151591828203610ac157612cf9613415565b6001600160a01b0316908115612d5a57612d2c9082600052601160205260406000209060ff801983541691151516179055565b6040519182527fd2a1abc2b849192f59897f554a9eecb25eeb36c9f6f7dbfba8256f36d292b77c60203393a3005b60405162461bcd60e51b815260206004820152602360248201527f54726561737572793a20496e76616c696420747265617375726572206164647260448201526265737360e81b6064820152608490fd5b34610ac1576000366003190112610ac1576040517f00000000000000000000000000000000000000000000000000000000000000006001600160a01b03168152602090f35b34610ac157602080600319360112610ac15760043580151580613026575b15612fe357336000526011825260ff604060002054168015612fcf575b8015612fc0575b15612f635780600052600c8252604060002060088101805460ff8116612f0f57600383015460101c6001600160a01b03163314612eba576001600160a81b0319163360081b610100600160a81b03161760011790556009429101557f508a19633777b38bc72d067d7052193c930b8ff14ec1567dd9d69453ecab169a604051924284523393a3005b60405162461bcd60e51b815260048101869052602760248201527f54726561737572793a2043616e6e6f7420766572696679206f776e207472616e60448201526639b0b1ba34b7b760c91b6064820152608490fd5b60405162461bcd60e51b815260048101869052602660248201527f54726561737572793a205472616e73616374696f6e20616c72656164792076656044820152651c9a599a595960d21b6064820152608490fd5b60405162461bcd60e51b815260048101839052602f60248201527f54726561737572793a204e6f7420617574686f72697a656420746f207665726960448201526e6679207472616e73616374696f6e7360881b6064820152608490fd5b50612fca336136b2565b612e32565b506000546001600160a01b03163314612e2b565b6064826040519062461bcd60e51b825280600483015260248201527f54726561737572793a20496e76616c6964207472616e73616374696f6e2049446044820152fd5b50600354811115612e0e565b34610ac1576020366003190112610ac157600435600052600d6020526040600020805460018060a01b036001830154169160ff6130b86002830154926003810154600482015490600661308760058501613240565b93015495604051988998895260208901526040880152606087015260808601526101008060a08701528501906132f3565b91818116151560c085015260081c16151560e08301520390f35b34610ac1576020366003190112610ac157600435600052600b60205260406000208054610c52600183015492600281015461317c6003830154600484015461311c60058601613240565b91613131600760ff6006890154169701613240565b94604051998a998a5260208a015260408901526131546060890160ff83166132e6565b60081c6001600160a01b0316608088015260a087015261012060c087018190528601906132f3565b91151560e08501528382036101008501526132f3565b90600182811c921680156131c2575b60208310146131ac57565b634e487b7160e01b600052602260045260246000fd5b91607f16916131a1565b61010081019081106001600160401b0382111761083457604052565b6101a081019081106001600160401b0382111761083457604052565b602081019081106001600160401b0382111761083457604052565b90601f801991011681019081106001600160401b0382111761083457604052565b906040519182600082549261325484613192565b9081845260019485811690816000146132c35750600114613280575b505061327e9250038361321f565b565b9093915060005260209081600020936000915b8183106132ab57505061327e93508201013880613270565b85548884018501529485019487945091830191613293565b91505061327e94506020925060ff191682840152151560051b8201013880613270565b90600582101561091a5752565b919082519283825260005b84811061331f575050826000602080949584010152601f8019910116010190565b6020818301810151848301820152016132fe565b600435906001600160a01b0382168203610ac157565b81601f82011215610ac1578035906001600160401b038211610834576040519261337d601f8401601f19166020018561321f565b82845260208383010111610ac157816000926020809301838601378301015290565b6020908160408183019282815285518094520193019160005b8281106133c6575050505090565b8351855293810193928101926001016133b8565b90600682101561091a5752565b8054821015610d315760005260206000200190600090565b6040906003190112610ac1576004359060243590565b6000546001600160a01b0316330361342957565b60405163118cdaa760e01b8152336004820152602490fd5b1561344857565b60405162461bcd60e51b815260206004820152602260248201527f54726561737572793a204e6f7420617574686f72697a6564207472656173757260448201526132b960f11b6064820152608490fd5b1561349f57565b60405162461bcd60e51b815260206004820152601c60248201527f54726561737572793a20496e76616c69642070726f6a656374204944000000006044820152606490fd5b156134eb57565b60405162461bcd60e51b815260206004820152602760248201527f54726561737572793a20416d6f756e74206d75737420626520677265617465726044820152660207468616e20360cc1b6064820152608490fd5b1561354757565b60405162461bcd60e51b815260206004820152602860248201527f54726561737572793a2049504653206465736372697074696f6e2068617368206044820152671c995c5d5a5c995960c21b6064820152608490fd5b6000198114610c565760010190565b600582101561091a5752565b91908201809211610c5657565b91908203918211610c5657565b805468010000000000000000811015610834576135f4916001820181556133e7565b819291549060031b91821b91600019901b1916179055565b60026001541461361d576002600155565b604051633ee5aeb560e01b8152600490fd5b1561363657565b60405162461bcd60e51b815260206004820152601960248201527f54726561737572793a20526561736f6e207265717569726564000000000000006044820152606490fd5b8115613685570490565b634e487b7160e01b600052601260045260246000fd5b6001600160401b0381116108345760051b60200190565b6040516305c7664d60e31b81526001600160a01b03918216600482015290602090829060249082907f0000000000000000000000000000000000000000000000000000000000000000165afa8091600091613723575b50906137145750600090565b1561371e57600190565b600090565b6020813d821161375c575b8161373b6020938361321f565b810103126137585751908115158203613755575038613708565b80fd5b5080fd5b3d915061372e56fea26469706673582212203fb6b0fd197ca53038582544fa40c492521059426d306c88526e002084f2636c64736f6c63430008140033",
  "devdoc": {
    "author": "CitiProof Team",
    "details": "Handles all financial transparency and fund allocation tracking",
    "errors": {
      "OwnableInvalidOwner(address)": [
        {
          "details": "The owner is not a valid owner account. (eg. `address(0)`)"
        }
      ],
      "OwnableUnauthorizedAccount(address)": [
        {
          "details": "The caller account is not authorized to perform an operation."
        }
      ],
      "ReentrancyGuardReentrantCall()": [
        {
          "details": "Unauthorized reentrant call."
        }
      ]
    },
    "kind": "dev",
    "methods": {
      "allocateFundsToProject(uint256,uint256,uint8,string,string)": {
        "details": "Allocate funds to a specific project"
      },
      "owner()": {
        "details": "Returns the address of the current owner."
      },
      "receiveDonation(uint256,string,bool)": {
        "details": "Receive donor contribution"
      },
      "recordTransaction(uint256,uint256,uint8,uint8,address,string,string)": {
        "details": "Record a financial transaction (expenditure)"
      },
      "renounceOwnership()": {
        "details": "Leaves the contract without owner. It will not be possible to call `onlyOwner` functions. Can only be called by the current owner. NOTE: Renouncing ownership will leave the contract without an owner, thereby disabling any functionality that is only available to the owner."
      },
      "transferFundsBetweenProjects(uint256,uint256,uint256,string)": {
        "details": "Transfer funds between projects"
      },
      "transferOwnership(address)": {
        "details": "Transfers ownership of the contract to a new account (`newOwner`). Can only be called by the current owner."
      },
      "verifyTransaction(uint256)": {
        "details": "Verify a transaction (by authorized verifiers)"
      }
    },
    "title": "TreasuryFundTracking",
    "version": 1
  },
  "userdoc": {
    "kind": "user",
    "methods": {},
    "version": 1
  },
  "storageLayout": {
    "storage": [
      {
        "astId": 8,
        "contract": "contracts/TreasuryFundTracking.sol:TreasuryFundTracking",
        "label": "_owner",
        "offset": 0,
        "slot": "0",
        "type": "t_address"
      },
      {
        "astId": 188,
        "contract": "contracts/TreasuryFundTracking.sol:TreasuryFundTracking",
        "label": "_status",
        "offset": 0,
        "slot": "1",
        "type": "t_uint256"
      },
      {
        "astId": 7173,
        "contract": "contracts/TreasuryFundTracking.sol:TreasuryFundTracking",
        "label": "_allocationIdCounter",
        "offset": 0,
        "slot": "2",
        "type": "t_uint256"
      },
      {
        "astId": 7175,
        "contract": "contracts/TreasuryFundTracking.sol:TreasuryFundTracking",
        "label": "_transactionIdCounter",
        "offset": 0,
        "slot": "3",
        "type": "t_uint256"
      },
      {
        "astId": 7177,
        "contract": "contracts/TreasuryFundTracking.sol:TreasuryFundTracking",
        "label": "_contributionIdCounter",
        "offset": 0,
        "slot": "4",
        "type": "t_uint256"
      },
      {
        "astId": 7180,
        "contract": "contracts/TreasuryFundTracking.sol:TreasuryFundTracking",
        "label": "budget",
        "offset": 0,
        "slot": "5",
        "type": "t_struct(BudgetAllocation)7171_storage"
      },
      {
        "astId": 7185,
        "contract": "contracts/TreasuryFundTracking.sol:TreasuryFundTracking",
        "label": "allocations",
        "offset": 0,
        "slot": "11",
        "type": "t_mapping(t_uint256,t_struct(FundAllocation)7108_storage)"
      },
      {
        "astId": 7190,
        "contract": "contracts/TreasuryFundTracking.sol:TreasuryFundTracking",
        "label": "transactions",
        "offset": 0,
        "slot": "12",
        "type": "t_mapping(t_uint256,t_struct(FinancialTransaction)7137_storage)"
      },
      {
        "astId": 7195,
        "contract": "contracts/TreasuryFundTracking.sol:TreasuryFundTracking",
        "label": "contributions",
        "offset": 0,
        "slot": "13",
        "type": "t_mapping(t_uint256,t_struct(DonorContribution)7154_storage)"
      },
      {
        "astId": 7200,
        "contract": "contracts/TreasuryFundTracking.sol:TreasuryFundTracking",
        "label": "projectAllocations",
        "offset": 0,
        "slot": "14",
        "type": "t_mapping(t_uint256,t_array(t_uint256)dyn_storage)"
      },
      {
        "astId": 7205,
        "contract": "contracts/TreasuryFundTracking.sol:TreasuryFundTracking",
        "label": "projectTransactions",
        "offset": 0,
        "slot": "15",
        "type": "t_mapping(t_uint256,t_array(t_uint256)dyn_storage)"
      },
      {
        "astId": 7210,
        "contract": "contracts/TreasuryFundTracking.sol:TreasuryFundTracking",
        "label": "donorContributions",
        "offset": 0,
        "slot": "16",
        "type": "t_mapping(t_address,t_array(t_uint256)dyn_storage)"
      },
      {
        "astId": 7214,
        "contract": "contracts/TreasuryFundTracking.sol:TreasuryFundTracking",
        "label": "authorizedTreasurers",
        "offset": 0,
        "slot": "17",
        "type": "t_mapping(t_address,t_bool)"
      }
    ],
    "types": {
      "t_address": {
        "encoding": "inplace",
        "label": "address",
        "numberOfBytes": "20"
      },
      "t_array(t_uint256)dyn_storage": {
        "base": "t_uint256",
        "encoding": "dynamic_array",
        "label": "uint256[]",
        "numberOfBytes": "32"
      },
      "t_bool": {
        "encoding": "inplace",
        "label": "bool",
        "numberOfBytes": "1"
      },
      "t_enum(FundSource)7081": {
        "encoding": "inplace",
        "label": "enum TreasuryFundTracking.FundSource",
        "numberOfBytes": "1"
      },
      "t_enum(TransactionType)7088": {
        "encoding": "inplace",
        "label": "enum TreasuryFundTracking.TransactionType",
        "numberOfBytes": "1"
      },
      "t_mapping(t_address,t_array(t_uint256)dyn_storage)": {
        "encoding": "mapping",
        "key": "t_address",
        "label": "mapping(address => uint256[])",
        "numberOfBytes": "32",
        "value": "t_array(t_uint256)dyn_storage"
      },
      "t_mapping(t_address,t_bool)": {
        "encoding": "mapping",
        "key": "t_address",
        "label": "mapping(address => bool)",
        "numberOfBytes": "32",
        "value": "t_bool"
      },
      "t_mapping(t_uint256,t_array(t_uint256)dyn_storage)": {
        "encoding": "mapping",
        "key": "t_uint256",
        "label": "mapping(uint256 => uint256[])",
        "numberOfBytes": "32",
        "value": "t_array(t_uint256)dyn_storage"
      },
      "t_mapping(t_uint256,t_struct(DonorContribution)7154_storage)": {
        "encoding": "mapping",
        "key": "t_uint256",
        "label": "mapping(uint256 => struct TreasuryFundTracking.DonorContribution)",
        "numberOfBytes": "32",
        "value": "t_struct(DonorContribution)7154_storage"
      },
      "t_mapping(t_uint256,t_struct(FinancialTransaction)7137_storage)": {
        "encoding": "mapping",
        "key": "t_uint256",
        "label": "mapping(uint256 => struct TreasuryFundTracking.FinancialTransaction)",
        "numberOfBytes": "32",
        "value": "t_struct(FinancialTransaction)7137_storage"
      },
      "t_mapping(t_uint256,t_struct(FundAllocation)7108_storage)": {
        "encoding": "mapping",
        "key": "t_uint256",
        "label": "mapping(uint256 => struct TreasuryFundTracking.FundAllocation)",
        "numberOfBytes": "32",
        "value": "t_struct(FundAllocation)7108_storage"
      },
      "t_mapping(t_uint256,t_uint256)": {
        "encoding": "mapping",
        "key": "t_uint256",
        "label": "mapping(uint256 => uint256)",
        "numberOfBytes": "32",
        "value": "t_uint256"
      },
      "t_string_storage": {
        "encoding": "bytes",
        "label": "string",
        "numberOfBytes": "32"
      },
      "t_struct(BudgetAllocation)7171_storage": {
        "encoding": "inplace",
        "label": "struct TreasuryFundTracking.BudgetAllocation",
        "members": [
          {
            "astId": 7156,
            "contract": "contracts/TreasuryFundTracking.sol:TreasuryFundTracking",
            "label": "totalBudget",
            "offset": 0,
            "slot": "0",
            "type": "t_uint256"
          },
          {
            "astId": 7158,
            "contract": "contracts/TreasuryFundTracking.sol:TreasuryFundTracking",
            "label": "allocatedBudget",
            "offset": 0,
            "slot": "1",
            "type": "t_uint256"
          },
          {
            "astId": 7160,
            "contract": "contracts/TreasuryFundTracking.sol:TreasuryFundTracking",
            "label": "spentBudget",
            "offset": 0,
            "slot": "2",
            "type": "t_uint256"
          },
          {
            "astId": 7162,
            "contract": "contracts/TreasuryFundTracking.sol:TreasuryFundTracking",
            "label": "availableBudget",
            "offset": 0,
            "slot": "3",
            "type": "t_uint256"
          },
          {
            "astId": 7166,
            "contract": "contracts/TreasuryFundTracking.sol:TreasuryFundTracking",
            "label": "projectAllocations",
            "offset": 0,
            "slot": "4",
            "type": "t_mapping(t_uint256,t_uint256)"
          },
          {
            "astId": 7170,
            "contract": "contracts/TreasuryFundTracking.sol:TreasuryFundTracking",
            "label": "projectSpending",
            "offset": 0,
            "slot": "5",
            "type": "t_mapping(t_uint256,t_uint256)"
          }
        ],
        "numberOfBytes": "192"
      },
      "t_struct(DonorContribution)7154_storage": {
        "encoding": "inplace",
        "label": "struct TreasuryFundTracking.DonorContribution",
        "members": [
          {
            "astId": 7139,
            "contract": "contracts/TreasuryFundTracking.sol:TreasuryFundTracking",
            "label": "contributionId",
            "offset": 0,
            "slot": "0",
            "type": "t_uint256"
          },
          {
            "astId": 7141,
            "contract": "contracts/TreasuryFundTracking.sol:TreasuryFundTracking",
            "label": "donor",
            "offset": 0,
            "slot": "1",
            "type": "t_address"
          },
          {
            "astId": 7143,
            "contract": "contracts/TreasuryFundTracking.sol:TreasuryFundTracking",
            "label": "amount",
            "offset": 0,
            "slot": "2",
            "type": "t_uint256"
          },
          {
            "astId": 7145,
            "contract": "contracts/TreasuryFundTracking.sol:TreasuryFundTracking",
            "label": "projectId",
            "offset": 0,
            "slot": "3",
            "type": "t_uint256"
          },
          {
            "astId": 7147,
            "contract": "contracts/TreasuryFundTracking.sol:TreasuryFundTracking",
            "label": "timestamp",
            "offset": 0,
            "slot": "4",
            "type": "t_uint256"
          },
          {
            "astId": 7149,
            "contract": "contracts/TreasuryFundTracking.sol:TreasuryFundTracking",
            "label": "ipfsMessageHash",
            "offset": 0,
            "slot": "5",
            "type": "t_string_storage"
          },
          {
            "astId": 7151,
            "contract": "contracts/TreasuryFundTracking.sol:TreasuryFundTracking",
            "label": "isAnonymous",
            "offset": 0,
            "slot": "6",
            "type": "t_bool"
          },
          {
            "astId": 7153,
            "contract": "contracts/TreasuryFundTracking.sol:TreasuryFundTracking",
            "label": "isRefunded",
            "offset": 1,
            "slot": "6",
            "type": "t_bool"
          }
        ],
        "numberOfBytes": "224"
      },
      "t_struct(FinancialTransaction)7137_storage": {
        "encoding": "inplace",
        "label": "struct TreasuryFundTracking.FinancialTransaction",
        "members": [
          {
            "astId": 7110,
            "contract": "contracts/TreasuryFundTracking.sol:TreasuryFundTracking",
            "label": "transactionId",
            "offset": 0,
            "slot": "0",
            "type": "t_uint256"
          },
          {
            "astId": 7112,
            "contract": "contracts/TreasuryFundTracking.sol:TreasuryFundTracking",
            "label": "projectId",
            "offset": 0,
            "slot": "1",
            "type": "t_uint256"
          },
          {
            "astId": 7114,
            "contract": "contracts/TreasuryFundTracking.sol:TreasuryFundTracking",
            "label": "amount",
            "offset": 0,
            "slot": "2",
            "type": "t_uint256"
          },
          {
            "astId": 7117,
            "contract": "contracts/TreasuryFundTracking.sol:TreasuryFundTracking",
            "label": "transactionType",
            "offset": 0,
            "slot": "3",
            "type": "t_enum(TransactionType)7088"
          },
          {
            "astId": 7120,
            "contract": "contracts/TreasuryFundTracking.sol:TreasuryFundTracking",
            "label": "source",
            "offset": 1,
            "slot": "3",
            "type": "t_enum(FundSource)7081"
          },
          {
            "astId": 7122,
            "contract": "contracts/TreasuryFundTracking.sol:TreasuryFundTracking",
            "label": "authorizedBy",
            "offset": 2,
            "slot": "3",
            "type": "t_address"
          },
          {
            "astId": 7124,
            "contract": "contracts/TreasuryFundTracking.sol:TreasuryFundTracking",
            "label": "recipient",
            "offset": 0,
            "slot": "4",
            "type": "t_address"
          },
          {
            "astId": 7126,
            "contract": "contracts/TreasuryFundTracking.sol:TreasuryFundTracking",
            "label": "timestamp",
            "offset": 0,
            "slot": "5",
            "type": "t_uint256"
          },
          {
            "astId": 7128,
            "contract": "contracts/TreasuryFundTracking.sol:TreasuryFundTracking",
            "label": "ipfsDescriptionHash",
            "offset": 0,
            "slot": "6",
            "type": "t_string_storage"
          },
          {
            "astId": 7130,
            "contract": "contracts/TreasuryFundTracking.sol:TreasuryFundTracking",
            "label": "receiptHash",
            "offset": 0,
            "slot": "7",
            "type": "t_string_storage"
          },
          {
            "astId": 7132,
            "contract": "contracts/TreasuryFundTracking.sol:TreasuryFundTracking",
            "label": "isVerified",
            "offset": 0,
            "slot": "8",
            "type": "t_bool"
          },
          {
            "astId": 7134,
            "contract": "contracts/TreasuryFundTracking.sol:TreasuryFundTracking",
            "label": "verifiedBy",
            "offset": 1,
            "slot": "8",
            "type": "t_address"
          },
          {
            "astId": 7136,
            "contract": "contracts/TreasuryFundTracking.sol:TreasuryFundTracking",
            "label": "verificationTimestamp",
            "offset": 0,
            "slot": "9",
            "type": "t_uint256"
          }
        ],
        "numberOfBytes": "320"
      },
      "t_struct(FundAllocation)7108_storage": {
        "encoding": "inplace",
        "label": "struct TreasuryFundTracking.FundAllocation",
        "members": [
          {
            "astId": 7090,
            "contract": "contracts/TreasuryFundTracking.sol:TreasuryFundTracking",
            "label": "allocationId",
            "offset": 0,
            "slot": "0",
            "type": "t_uint256"
          },
          {
            "astId": 7092,
            "contract": "contracts/TreasuryFundTracking.sol:TreasuryFundTracking",
            "label": "projectId",
            "offset": 0,
            "slot": "1",
            "type": "t_uint256"
          },
          {
            "astId": 7094,
            "contract": "contracts/TreasuryFundTracking.sol:TreasuryFundTracking",
            "label": "amount",
            "offset": 0,
            "slot": "2",
            "type": "t_uint256"
          },
          {
            "astId": 7097,
            "contract": "contracts/TreasuryFundTracking.sol:TreasuryFundTracking",
            "label": "source",
            "offset": 0,
            "slot": "3",
            "type": "t_enum(FundSource)7081"
          },
          {
            "astId": 7099,
            "contract": "contracts/TreasuryFundTracking.sol:TreasuryFundTracking",
            "label": "authorizedBy",
            "offset": 1,
            "slot": "3",
            "type": "t_address"
          },
          {
            "astId": 7101,
            "contract": "contracts/TreasuryFundTracking.sol:TreasuryFundTracking",
            "label": "timestamp",
            "offset": 0,
            "slot": "4",
            "type": "t_uint256"
          },
          {
            "astId": 7103,
            "contract": "contracts/TreasuryFundTracking.sol:TreasuryFundTracking",
            "label": "ipfsDescriptionHash",
            "offset": 0,
            "slot": "5",
            "type": "t_string_storage"
          },
          {
            "astId": 7105,
            "contract": "contracts/TreasuryFundTracking.sol:TreasuryFundTracking",
            "label": "isActive",
            "offset": 0,
            "slot": "6",
            "type": "t_bool"
          },
          {
            "astId": 7107,
            "contract": "contracts/TreasuryFundTracking.sol:TreasuryFundTracking",
            "label": "documentHash",
            "offset": 0,
            "slot": "7",
            "type": "t_string_storage"
          }
        ],
        "numberOfBytes": "256"
      },
      "t_uint256": {
        "encoding": "inplace",
        "label": "uint256",
        "numberOfBytes": "32"
      }
    }
  }
}