{
  "address": "0x51649792320c676b2e38accfb7cd61ab0d2a3f5a",
  "abi": [
    {
      "inputs": [
        {
          "internalType": "address",
          "name": "initialOwner",
          "type": "address"
        },
        {
          "internalType": "address",
          "name": "_citizenRegistry",
          "type": "address"
        },
        {
          "internalType": "address",
          "name": "_reputationSystem",
          "type": "address"
        },
        {
          "internalType": "address",
          "name": "_projectRegistry",
          "type": "address"
        }
      ],
      "stateMutability": "nonpayable",
      "type": "constructor"
    },
    {
      "inputs": [
        {
          "internalType": "address",
          "name": "owner",
          "type": "address"
        }
      ],
      "name": "OwnableInvalidOwner",
      "type": "error"
    },
    {
      "inputs": [
        {
          "internalType": "address",
          "name": "account",
          "type": "address"
        }
      ],
      "name": "OwnableUnauthorizedAccount",
      "type": "error"
    },
    {
      "inputs": [],
      "name": "ReentrancyGuardReentrantCall",
      "type": "error"
    },
    {
      "anonymous": false,
      "inputs": [
        {
          "indexed": true,
          "internalType": "address",
          "name": "previousOwner",
          "type": "address"
        },
        {
          "indexed": true,
          "internalType": "address",
          "name": "newOwner",
          "type": "address"
        }
      ],
      "name": "OwnershipTransferred",
      "type": "event"
    },
    {
      "anonymous": false,
      "inputs": [
        {
          "indexed": true,
          "internalType": "uint256",
          "name": "proposalId",
          "type": "uint256"
        },
        {
          "indexed": true,
          "internalType": "uint256",
          "name": "creatorCitizenId",
          "type": "uint256"
        },
        {
          "indexed": true,
          "internalType": "address",
          "name": "creator",
          "type": "address"
        },
        {
          "indexed": false,
          "internalType": "enum VotingGovernanceSystem.ProposalType",
          "name": "proposalType",
          "type": "uint8"
        },
        {
          "indexed": false,
          "internalType": "string",
          "name": "title",
          "type": "string"
        }
      ],
      "name": "ProposalCreated",
      "type": "event"
    },
    {
      "anonymous": false,
      "inputs": [
        {
          "indexed": true,
          "internalType": "uint256",
          "name": "proposalId",
          "type": "uint256"
        },
        {
          "indexed": false,
          "internalType": "enum VotingGovernanceSystem.ProposalStatus",
          "name": "finalStatus",
          "type": "uint8"
        },
        {
          "indexed": false,
          "internalType": "uint256",
          "name": "yesVotes",
          "type": "uint256"
        },
        {
          "indexed": false,
          "internalType": "uint256",
          "name": "noVotes",
          "type": "uint256"
        }
      ],
      "name": "ProposalExecuted",
      "type": "event"
    },
    {
      "anonymous": false,
      "inputs": [
        {
          "indexed": true,
          "internalType": "uint256",
          "name": "proposalId",
          "type": "uint256"
        },
        {
          "indexed": false,
          "internalType": "enum VotingGovernanceSystem.ProposalStatus",
          "name": "oldStatus",
          "type": "uint8"
        },
        {
          "indexed": false,
          "internalType": "enum VotingGovernanceSystem.ProposalStatus",
          "name": "newStatus",
          "type": "uint8"
        }
      ],
      "name": "ProposalStatusChanged",
      "type": "event"
    },
    {
      "anonymous": false,
      "inputs": [
        {
          "indexed": true,
          "internalType": "uint256",
          "name": "proposalId",
          "type": "uint256"
        },
        {
          "indexed": true,
          "internalType": "uint256",
          "name": "citizenId",
          "type": "uint256"
        },
        {
          "indexed": true,
          "internalType": "address",
          "name": "voter",
          "type": "address"
        },
        {
          "indexed": false,
          "internalType": "bool",
          "name": "support",
          "type": "bool"
        },
        {
          "indexed": false,
          "internalType": "uint256",
          "name": "votingPower",
          "type": "uint256"
        }
      ],
      "name": "VoteCast",
      "type": "event"
    },
    {
      "inputs": [
        {
          "internalType": "uint256",
          "name": "_proposalId",
          "type": "uint256"
        }
      ],
      "name": "cancelProposal",
      "outputs": [],
      "stateMutability": "nonpayable",
      "type": "function"
    },
    {
      "inputs": [
        {
          "internalType": "uint256",
          "name": "_proposalId",
          "type": "uint256"
        },
        {
          "internalType": "bool",
          "name": "_support",
          "type": "bool"
        },
        {
          "internalType": "string",
          "name": "_reason",
          "type": "string"
        }
      ],
      "name": "castVote",
      "outputs": [],
      "stateMutability": "nonpayable",
      "type": "function"
    },
    {
      "inputs": [
        {
          "internalType": "address",
          "name": "",
          "type": "address"
        },
        {
          "internalType": "uint256",
          "name": "",
          "type": "uint256"
        }
      ],
      "name": "citizenProposals",
      "outputs": [
        {
          "internalType": "uint256",
          "name": "",
          "type": "uint256"
        }
      ],
      "stateMutability": "view",
      "type": "function"
    },
    {
      "inputs": [],
      "name": "citizenRegistry",
      "outputs": [
        {
          "internalType": "contract CitizenIdentityRegistry",
          "name": "",
          "type": "address"
        }
      ],
      "stateMutability": "view",
      "type": "function"
    },
    {
      "inputs": [
        {
          "internalType": "string",
          "name": "_title",
          "type": "string"
        },
        {
          "internalType": "string",
          "name": "_description",
          "type": "string"
        },
        {
          "internalType": "enum VotingGovernanceSystem.ProposalType",
          "name": "_proposalType",
          "type": "uint8"
        },
        {
          "internalType": "uint256",
          "name": "_votingPeriod",
          "type": "uint256"
        },
        {
          "internalType": "uint256",
          "name": "_relatedProjectId",
          "type": "uint256"
        }
      ],
      "name": "createProposal",
      "outputs": [],
      "stateMutability": "nonpayable",
      "type": "function"
    },
    {
      "inputs": [],
      "name": "defaultPassingThreshold",
      "outputs": [
        {
          "internalType": "uint256",
          "name": "",
          "type": "uint256"
        }
      ],
      "stateMutability": "view",
      "type": "function"
    },
    {
      "inputs": [],
      "name": "defaultVotingPeriod",
      "outputs": [
        {
          "internalType": "uint256",
          "name": "",
          "type": "uint256"
        }
      ],
      "stateMutability": "view",
      "type": "function"
    },
    {
      "inputs": [
        {
          "internalType": "uint256",
          "name": "_proposalId",
          "type": "uint256"
        }
      ],
      "name": "executeProposal",
      "outputs": [],
      "stateMutability": "nonpayable",
      "type": "function"
    },
    {
      "inputs": [],
      "name": "getActiveProposals",
      "outputs": [
        {
          "internalType": "uint256[]",
          "name": "",
          "type": "uint256[]"
        }
      ],
      "stateMutability": "view",
      "type": "function"
    },
    {
      "inputs": [
        {
          "internalType": "address",
          "name": "_citizen",
          "type": "address"
        }
      ],
      "name": "getCitizenProposals",
      "outputs": [
        {
          "internalType": "uint256[]",
          "name": "",
          "type": "uint256[]"
        }
      ],
      "stateMutability": "view",
      "type": "function"
    },
    {
      "inputs": [
        {
          "internalType": "uint256",
          "name": "_proposalId",
          "type": "uint256"
        }
      ],
      "name": "getProposal",
      "outputs": [
        {
          "components": [
            {
              "internalType": "uint256",
              "name": "proposalId",
              "type": "uint256"
            },
            {
              "internalType": "uint256",
              "name": "creatorCitizenId",
              "type": "uint256"
            },
            {
              "internalType": "address",
              "name": "creator",
              "type": "address"
            },
            {
              "internalType": "string",
              "name": "title",
              "type": "string"
            },
            {
              "internalType": "string",
              "name": "ipfsDescriptionHash",
              "type": "string"
            },
            {
              "internalType": "enum VotingGovernanceSystem.ProposalType",
              "name": "proposalType",
              "type": "uint8"
            },
            {
              "internalType": "enum VotingGovernanceSystem.ProposalStatus",
              "name": "status",
              "type": "uint8"
            },
            {
              "internalType": "uint256",
              "name": "creationTimestamp",
              "type": "uint256"
            },
            {
              "internalType": "uint256",
              "name": "votingEndTimestamp",
              "type": "uint256"
            },
            {
              "internalType": "uint256",
              "name": "executionTimestamp",
              "type": "uint256"
            },
            {
              "internalType": "uint256",
              "name": "yesVotes",
              "type": "uint256"
            },
            {
              "internalType": "uint256",
              "name": "noVotes",
              "type": "uint256"
            },
            {
              "internalType": "uint256",
              "name": "totalVotingPower",
              "type": "uint256"
            },
            {
              "internalType": "uint256",
              "name": "quorumRequired",
              "type": "uint256"
            },
            {
              "internalType": "uint256",
              "name": "passingThreshold",
              "type": "uint256"
            },
            {
              "internalType": "bytes",
              "name": "executionData",
              "type": "bytes"
            },
            {
              "internalType": "string",
              "name": "ipfsDocumentHash",
              "type": "string"
            },
            {
              "internalType": "bool",
              "name": "isExecuted",
              "type": "bool"
            },
            {
              "internalType": "uint256",
              "name": "relatedProjectId",
              "type": "uint256"
            }
          ],
          "internalType": "struct VotingGovernanceSystem.Proposal",
          "name": "",
          "type": "tuple"
        }
      ],
      "stateMutability": "view",
      "type": "function"
    },
    {
      "inputs": [
        {
          "internalType": "uint256",
          "name": "_proposalId",
          "type": "uint256"
        }
      ],
      "name": "getProposalVotes",
      "outputs": [
        {
          "components": [
            {
              "internalType": "uint256",
              "name": "citizenId",
              "type": "uint256"
            },
            {
              "internalType": "address",
              "name": "voter",
              "type": "address"
            },
            {
              "internalType": "bool",
              "name": "support",
              "type": "bool"
            },
            {
              "internalType": "uint256",
              "name": "votingPower",
              "type": "uint256"
            },
            {
              "internalType": "uint256",
              "name": "timestamp",
              "type": "uint256"
            },
            {
              "internalType": "string",
              "name": "reason",
              "type": "string"
            }
          ],
          "internalType": "struct VotingGovernanceSystem.Vote[]",
          "name": "",
          "type": "tuple[]"
        }
      ],
      "stateMutability": "view",
      "type": "function"
    },
    {
      "inputs": [
        {
          "internalType": "enum VotingGovernanceSystem.ProposalType",
          "name": "_proposalType",
          "type": "uint8"
        }
      ],
      "name": "getProposalsByType",
      "outputs": [
        {
          "internalType": "uint256[]",
          "name": "",
          "type": "uint256[]"
        }
      ],
      "stateMutability": "view",
      "type": "function"
    },
    {
      "inputs": [],
      "name": "getTotalProposals",
      "outputs": [
        {
          "internalType": "uint256",
          "name": "",
          "type": "uint256"
        }
      ],
      "stateMutability": "view",
      "type": "function"
    },
    {
      "inputs": [],
      "name": "getVotingStats",
      "outputs": [
        {
          "internalType": "uint256",
          "name": "totalProposals",
          "type": "uint256"
        },
        {
          "internalType": "uint256",
          "name": "activeProposals",
          "type": "uint256"
        },
        {
          "internalType": "uint256",
          "name": "passedProposals",
          "type": "uint256"
        },
        {
          "internalType": "uint256",
          "name": "rejectedProposals",
          "type": "uint256"
        }
      ],
      "stateMutability": "view",
      "type": "function"
    },
    {
      "inputs": [
        {
          "internalType": "uint256",
          "name": "",
          "type": "uint256"
        },
        {
          "internalType": "uint256",
          "name": "",
          "type": "uint256"
        }
      ],
      "name": "hasVoted",
      "outputs": [
        {
          "internalType": "bool",
          "name": "",
          "type": "bool"
        }
      ],
      "stateMutability": "view",
      "type": "function"
    },
    {
      "inputs": [],
      "name": "minimumQuorum",
      "outputs": [
        {
          "internalType": "uint256",
          "name": "",
          "type": "uint256"
        }
      ],
      "stateMutability": "view",
      "type": "function"
    },
    {
      "inputs": [],
      "name": "minimumReputationToPropose",
      "outputs": [
        {
          "internalType": "uint256",
          "name": "",
          "type": "uint256"
        }
      ],
      "stateMutability": "view",
      "type": "function"
    },
    {
      "inputs": [],
      "name": "minimumReputationToVote",
      "outputs": [
        {
          "internalType": "uint256",
          "name": "",
          "type": "uint256"
        }
      ],
      "stateMutability": "view",
      "type": "function"
    },
    {
      "inputs": [],
      "name": "owner",
      "outputs": [
        {
          "internalType": "address",
          "name": "",
          "type": "address"
        }
      ],
      "stateMutability": "view",
      "type": "function"
    },
    {
      "inputs": [],
      "name": "projectRegistry",
      "outputs": [
        {
          "internalType": "contract GovernmentProjectRegistry",
          "name": "",
          "type": "address"
        }
      ],
      "stateMutability": "view",
      "type": "function"
    },
    {
      "inputs": [
        {
          "internalType": "uint256",
          "name": "",
          "type": "uint256"
        },
        {
          "internalType": "uint256",
          "name": "",
          "type": "uint256"
        }
      ],
      "name": "proposalVotes",
      "outputs": [
        {
          "internalType": "uint256",
          "name": "citizenId",
          "type": "uint256"
        },
        {
          "internalType": "address",
          "name": "voter",
          "type": "address"
        },
        {
          "internalType": "bool",
          "name": "support",
          "type": "bool"
        },
        {
          "internalType": "uint256",
          "name": "votingPower",
          "type": "uint256"
        },
        {
          "internalType": "uint256",
          "name": "timestamp",
          "type": "uint256"
        },
        {
          "internalType": "string",
          "name": "reason",
          "type": "string"
        }
      ],
      "stateMutability": "view",
      "type": "function"
    },
    {
      "inputs": [
        {
          "internalType": "uint256",
          "name": "",
          "type": "uint256"
        }
      ],
      "name": "proposals",
      "outputs": [
        {
          "internalType": "uint256",
          "name": "proposalId",
          "type": "uint256"
        },
        {
          "internalType": "uint256",
          "name": "creatorCitizenId",
          "type": "uint256"
        },
        {
          "internalType": "address",
          "name": "creator",
          "type": "address"
        },
        {
          "internalType": "string",
          "name": "title",
          "type": "string"
        },
        {
          "internalType": "string",
          "name": "ipfsDescriptionHash",
          "type": "string"
        },
        {
          "internalType": "enum VotingGovernanceSystem.ProposalType",
          "name": "proposalType",
          "type": "uint8"
        },
        {
          "internalType": "enum VotingGovernanceSystem.ProposalStatus",
          "name": "status",
          "type": "uint8"
        },
        {
          "internalType": "uint256",
          "name": "creationTimestamp",
          "type": "uint256"
        },
        {
          "internalType": "uint256",
          "name": "votingEndTimestamp",
          "type": "uint256"
        },
        {
          "internalType": "uint256",
          "name": "executionTimestamp",
          "type": "uint256"
        },
        {
          "internalType": "uint256",
          "name": "yesVotes",
          "type": "uint256"
        },
        {
          "internalType": "uint256",
          "name": "noVotes",
          "type": "uint256"
        },
        {
          "internalType": "uint256",
          "name": "totalVotingPower",
          "type": "uint256"
        },
        {
          "internalType": "uint256",
          "name": "quorumRequired",
          "type": "uint256"
        },
        {
          "internalType": "uint256",
          "name": "passingThreshold",
          "type": "uint256"
        },
        {
          "internalType": "bytes",
          "name": "executionData",
          "type": "bytes"
        },
        {
          "internalType": "string",
          "name": "ipfsDocumentHash",
          "type": "string"
        },
        {
          "internalType": "bool",
          "name": "isExecuted",
          "type": "bool"
        },
        {
          "internalType": "uint256",
          "name": "relatedProjectId",
          "type": "uint256"
        }
      ],
      "stateMutability": "view",
      "type": "function"
    },
    {
      "inputs": [],
      "name": "renounceOwnership",
      "outputs": [],
      "stateMutability": "nonpayable",
      "type": "function"
    },
    {
      "inputs": [],
      "name": "reputationSystem",
      "outputs": [
        {
          "internalType": "contract ReputationSystem",
          "name": "",
          "type": "address"
        }
      ],
      "stateMutability": "view",
      "type": "function"
    },
    {
      "inputs": [
        {
          "internalType": "address",
          "name": "newOwner",
          "type": "address"
        }
      ],
      "name": "transferOwnership",
      "outputs": [],
      "stateMutability": "nonpayable",
      "type": "function"
    },
    {
      "inputs": [
        {
          "internalType": "uint256",
          "name": "",
          "type": "uint256"
        },
        {
          "internalType": "uint256",
          "name": "",
          "type": "uint256"
        }
      ],
      "name": "typeProposals",
      "outputs": [
        {
          "internalType": "uint256",
          "name": "",
          "type": "uint256"
        }
      ],
      "stateMutability": "view",
      "type": "function"
    },
    {
      "inputs": [
        {
          "internalType": "address",
          "name": "_projectRegistry",
          "type": "address"
        }
      ],
      "name": "updateProjectRegistry",
      "outputs": [],
      "stateMutability": "nonpayable",
      "type": "function"
    },
    {
      "inputs": [
        {
          "internalType": "address",
          "name": "_reputationSystem",
          "type": "address"
        }
      ],
      "name": "updateReputationSystem",
      "outputs": [],
      "stateMutability": "nonpayable",
      "type": "function"
    },
    {
      "inputs": [
        {
          "internalType": "uint256",
          "name": "_defaultVotingPeriod",
          "type": "uint256"
        },
        {
          "internalType": "uint256",
          "name": "_minimumQuorum",
          "type": "uint256"
        },
        {
          "internalType": "uint256",
          "name": "_defaultPassingThreshold",
          "type": "uint256"
        },
        {
          "internalType": "uint256",
          "name": "_minimumReputationToPropose",
          "type": "uint256"
        },
        {
          "internalType": "uint256",
          "name": "_minimumReputationToVote",
          "type": "uint256"
        }
      ],
      "name": "updateVotingConfig",
      "outputs": [],
      "stateMutability": "nonpayable",
      "type": "function"
    }
  ],
  "transactionHash": "0xd0a7df6a45d69e3726753cfca9e4d509b2bc1a3af082b6b298caecc116ac8c1d",
  "args": [
    "0x847118E06a68716b385a86a50250C598D33Ca68C",
    "0x9F4Bc4cb48e60871768b4cFB9CF9C53381063652",
    "0x0Be2398A11E351903d7528533F2b5d544301510c",
    "0xA2B1623a4AdE119f510Bd33493D70A246737bcD8"
  ],
  "numDeployments": 1,
  "solcInputHash": "2510a4953b833be54b78475d9a98dd2b",
  "bytecode": "0x60a0346200023357601f62002dc638819003918201601f191683019291906001600160401b0384118385101762000238578160809284926040968752833981010312620002335762000051816200024e565b90602091620000628383016200024e565b6200007d6060620000758786016200024e565b94016200024e565b6001600160a01b039283169390929084156200021b57816000549360018060a01b0319968088871617600055828a5196167f8be0079c531659141344cd1fd0a4f28419497f9722a3daafe3b4186f6b6457e0600080a36001805562093a80600a556103e8600b556113ec600c556064600d556032600e5516928315620001db575081169283156200018d57169384156200014b5750608052816002541617600255600354161760035551612b6290816200026482396080518181816107dc0152818161132d0152611d820152f35b60649086519062461bcd60e51b825280600483015260248201527f566f74696e673a20496e76616c69642070726f6a6563742072656769737472796044820152fd5b865162461bcd60e51b815260048101879052602160248201527f566f74696e673a20496e76616c69642072657075746174696f6e2073797374656044820152606d60f81b6064820152608490fd5b6064908762461bcd60e51b825280600483015260248201527f566f74696e673a20496e76616c696420636974697a656e2072656769737472796044820152fd5b8651631e4fbdf760e01b815260006004820152602490fd5b600080fd5b634e487b7160e01b600052604160045260246000fd5b51906001600160a01b0382168203620002335756fe61010080604052600436101561001457600080fd5b600090813560e01c908163013cf08b1461219a57508063099ba3e6146121275780630d61b51914611f335780630d68eb9e14611e94578063125b5e9a14611e765780631a5007dd14611e58578063216ed81a14611db1578063386ca89d14611d6c57806347c6614014611bdb57806353b5059414611b585780635584c4f9146119f35780635a33d8dc146119ca57806362aef6f0146112da57806364390ff1146112a85780636587eda11461127f57806366255cda146111e95780636beef7d1146111cb578063715018a61461117157806376804a03146110715780638160f0b5146110535780638da5cb5b1461102c5780639f6703af14610ffa578063a83bf50a14610fdc578063b498c7c01461076c578063b6d5f5181461074e578063bc210810146106f8578063c7f758a8146103ba578063e0a8f6f514610284578063f2fde38b146101f95763f3e6e08a1461016c57600080fd5b346101f65760203660031901126101f657610185612549565b61018d612661565b6001600160a01b031680156101b2576001600160601b0360a01b600354161760035580f35b606460405162461bcd60e51b815260206004820152602060248201527f566f74696e673a20496e76616c69642070726f6a6563742072656769737472796044820152fd5b80fd5b50346101f65760203660031901126101f657610213612549565b61021b612661565b6001600160a01b0390811690811561026b57600054826001600160601b0360a01b821617600055167f8be0079c531659141344cd1fd0a4f28419497f9722a3daafe3b4186f6b6457e0600080a380f35b604051631e4fbdf760e01b815260048101849052602490fd5b50346101f6576020806003193601126103b65760043590811515806103aa575b6102ad90612965565b818352600581526040832060020154336001600160a01b039182161490811561039d575b501561035a5760407fb0978968e606225988b6464f99ce7e86b0e8770d80eaec1369bb3780e05c6438918385526005815261032160ff6005848820015460081c1661031b81612529565b156129b1565b838552600580825282862001805461ff001981166104001790915582519160049160081c60ff1661035181612529565b8352820152a280f35b6064906040519062461bcd60e51b825280600483015260248201527f566f74696e673a204e6f7420617574686f72697a656420746f2063616e63656c6044820152fd5b90508354163314386102d1565b506004548211156102a4565b5080fd5b50346101f65760203660031901126101f6578060409161024083516103de81612489565b8281528260208201528285820152606080820152606060808201528260a08201528260c08201528260e08201528261010082015282610120820152826101408201528261016082015282610180820152826101a0820152826101c082015260606101e082015260606102008201528261022082015201526004351515806106ea575b61046990612965565b600435815260056020522060116040519161048383612489565b805483526001810154602084015260028101546001600160a01b0316604080850191909152516104c1816104ba81600386016123c2565b03826124c0565b60608401526040516104da816104ba81600486016123c2565b608084015260ff60058201546104f1828216612529565b81811660a0860152610507828260081c16612529565b60081c1660c0840152600681015460e0840152600781015461010084015260088101546101208401526009810154610140840152600a810154610160840152600b810154610180840152600c8101546101a0840152600d8101546101c084015260405161057b816104ba81600e86016123c2565b6101e0840152604051610595816104ba81600f86016123c2565b61020084015260ff60108201541615156102208401520154610240820152604051809160208252805160208301526020810151604083015260018060a01b0360408201511660608301526102406106d16106b961061c61060660608601516102606080890152610280880190612504565b6080860151878203601f190160a0890152612504565b60a085015161062a81612529565b60c087015260c085015161063d81612529565b60e087015260e08501516101008701526101008501516101208701526101208501516101408701526101408501516101608701526101608501516101808701526101808501516101a08701526101a08501516101c08701526101c08501516101e08701526101e0850151601f1987830301610200880152612504565b610200840151858203601f1901610220870152612504565b9161022081015115158285015201516102608301520390f35b506004805490351115610460565b50346101f65760403660031901126101f657610712612549565b6001600160a01b03168152600860205260408120805460243592908310156101f65760206107408484612649565b90546040519160031b1c8152f35b50346101f657806003193601126101f6576020600c54604051908152f35b50346101f65760a03660031901126101f6576004356001600160401b0381116103b65761079d903690600401612602565b6024356001600160401b038111610fd8576107bc903690600401612602565b60056044351015610fd8576040516305c7664d60e31b81523360048201527f00000000000000000000000000000000000000000000000000000000000000006001600160a01b03169190602081602481865afa8015610fcd578590610f8e575b610826915061269a565b600260015414610f7c576002600155825115610f3757600a81511115610ef25783602492604051938480926370cf630f60e11b82523360048301525afa849281610ece575b5061088d5760405162461bcd60e51b81528061088960048201612845565b0390fd5b6101408251920151600d5411610e89576108a860045461288b565b6004819055906064358015610e7d576108c2905b426128b0565b600b54600c5491604051936108d685612489565b85855286602086015233604086015287606086015260808501526108fb604435612529565b60443560a08501528760c08501524260e0850152610100840152866101208401528661014084015286610160840152866101808401526101a08301526101c0820152604051610949816124a5565b8581526101e082015260405161095e816124a5565b858152610200820152846102208201526084356102408201528185526005602052604085209080518255602081015160018301556002820160018060a01b036040830151166001600160601b0360a01b82541617905560608101518051906001600160401b038211610cfb5781906109e6826109dd6003880154612388565b600388016128bd565b602090601f8311600114610e0e578992610e03575b50508160011b916000199060031b1c19161760038301555b60808101518051906001600160401b038211610cfb578190610a4582610a3c6004880154612388565b600488016128bd565b602090601f8311600114610d94578992610d89575b50508160011b916000199060031b1c19161760048301555b60a0810151610a8081612529565b610a8981612529565b60ff80196005850154169116176005830155610ab560c0820151610aac81612529565b60058401612911565b60e08101516006830155610100810151600783015561012081015160088301556101408101516009830155610160810151600a830155610180810151600b8301556101a0810151600c8301556101c0810151600d8301556101e08101518051906001600160401b038211610cfb578190610b3f82610b36600e880154612388565b600e88016128bd565b602090601f8311600114610d1a578992610d0f575b50508160011b916000199060031b1c191617600e8301555b6102008101518051906001600160401b038211610cfb57610b9d82610b94600f870154612388565b600f87016128bd565b602090601f8311600114610c8857918060119492610240948b92610c7d575b50508160011b916000199060031b1c191617600f8501555b60108401610220820151151560ff8019835416911617905501519101553384526008602052610c068160408620612930565b610c11604435612529565b60443584526009602052610c288160408620612930565b7fb1d569dc5621a0a51229b7ac0eff81f3e6df70a3f72fe608aa58f74bb69d7bb6604051610c57604435612529565b60443581526040602082015280610c7333966040830190612504565b0390a46001805580f35b015190503880610bbc565b90600f850189526020892091895b601f1985168110610ce3575092601194926001926102409583601f19811610610cca575b505050811b01600f850155610bd4565b015160001960f88460031b161c19169055388080610cba565b91926020600181928685015181550194019201610c96565b634e487b7160e01b88526041600452602488fd5b015190503880610b54565b9250600e85018952602089209089935b601f1984168510610d6e576001945083601f19811610610d55575b505050811b01600e830155610b6c565b015160001960f88460031b161c19169055388080610d45565b81810151835560209485019460019093019290910190610d2a565b015190503880610a5a565b9250600485018952602089209089935b601f1984168510610de8576001945083601f19811610610dcf575b505050811b016004830155610a72565b015160001960f88460031b161c19169055388080610dbf565b81810151835560209485019460019093019290910190610da4565b0151905038806109fb565b9250600385018952602089209089935b601f1984168510610e62576001945083601f19811610610e49575b505050811b016003830155610a13565b015160001960f88460031b161c19169055388080610e39565b81810151835560209485019460019093019290910190610e1e565b506108c2600a546108bc565b60405162461bcd60e51b815260206004820152601f60248201527f566f74696e673a20496e73756666696369656e742072657075746174696f6e006044820152606490fd5b610eeb9193503d8087833e610ee381836124c0565b810190612736565b913861086b565b60405162461bcd60e51b815260206004820152601d60248201527f566f74696e673a204465736372697074696f6e20746f6f2073686f72740000006044820152606490fd5b60405162461bcd60e51b815260206004820152601d60248201527f566f74696e673a205469746c652063616e6e6f7420626520656d7074790000006044820152606490fd5b604051633ee5aeb560e01b8152600490fd5b506020813d602011610fc5575b81610fa8602093836124c0565b81010312610fc157610fbc6108269161268d565b61081c565b8480fd5b3d9150610f9b565b6040513d87823e3d90fd5b8280fd5b50346101f657806003193601126101f6576020600a54604051908152f35b50346101f6576110093661259f565b919081526009602052604081209081548310156101f65760206107408484612649565b50346101f657806003193601126101f657546040516001600160a01b039091168152602090f35b50346101f657806003193601126101f6576020600b54604051908152f35b50346101f657806003193601126101f6576004548180600180825b858311156110b25750505092608093604051938452602084015260408301526060820152f35b9091928382526005602081815260ff8260408620015460081c16916110d683612529565b8215918261115a575b50501561110057506110f36110f99161288b565b9361288b565b919061108c565b61110d8198929598612529565b80840361112757506111216110f99161288b565b9661288b565b80611136600292999399612529565b14611145575b6110f99061288b565b936111526110f99161288b565b94905061113c565b8786525250604083206007015442111538806110df565b50346101f657806003193601126101f65761118a612661565b600080546001600160a01b0319811682556001600160a01b03167f8be0079c531659141344cd1fd0a4f28419497f9722a3daafe3b4186f6b6457e08280a380f35b50346101f657806003193601126101f6576020600d54604051908152f35b50346101f65760203660031901126101f657611203612549565b61120b612661565b6001600160a01b03168015611230576001600160601b0360a01b600254161760025580f35b60405162461bcd60e51b815260206004820152602160248201527f566f74696e673a20496e76616c69642072657075746174696f6e2073797374656044820152606d60f81b6064820152608490fd5b50346101f657806003193601126101f6576002546040516001600160a01b039091168152602090f35b50346101f65760ff60406020926112be3661259f565b9082526007855282822090825284522054166040519015158152f35b50346101f65760603660031901126101f6576024351515602435036101f6576044356001600160401b0381116103b657611318903690600401612602565b6040516305c7664d60e31b81523360048201527f00000000000000000000000000000000000000000000000000000000000000006001600160a01b031690602081602481855afa80156119bf578490611980575b611376915061269a565b600435151580611972575b61138a90612965565b600435835260056020526113ae60ff600560408620015460081c1661031b81612529565b600435835260056020526007604084200154421161192d5782602491604051928380926370cf630f60e11b82523360048301525afa839181611911575b506114095760405162461bcd60e51b81528061088960048201612845565b6101408151910151600e5481106118bc57600435845260076020526040842082855260205260ff6040852054166118685760043584526005602052816001604086200154146118175761145b90612a32565b9160043584526006602052604084206040519161147783612458565b8383523360208401526024351515604084015284606084015242608084015260a0830152805490600160401b8210156117ef57906114ba916001820181556125b5565b919091611803578060a09151835560018301600180841b0360208301511681549060ff851b60408501511515861b16916affffffffffffffffffffff60a81b1617179055606081015160028401556080810151600384015501518051906001600160401b0382116117ef5761153f826115366004860154612388565b600486016128bd565b602090601f83116001146117825760049291879183611777575b50508160011b916000199060031b1c1916179101555b600435835260076020526040832081845260205260408320600160ff198254161790556004358352600560205260408320600b81016115af8482546128b0565b905560243515611762576009016115c78382546128b0565b90555b60405163766f746560e01b60208201526004356024820152602481528060608101106001600160401b0360608301111761174e5760608101604052838151602083012060018060a01b036002541690813b15610fd857621b88c160ea1b60608501528460648501526084840152604460608401918360608601915af1611719575b506040519160243515158352602083015233917fd72a296265de05f7f425107ca376651b68831fa700c5ed272487924e44532dc5604060043592a4611691600435612a81565b6116985780f35b60043581526005602052604081207ffe720701ff1e6911b3b487f3b4c49853b54be0002c601fe540188d7a1e60e16b6116d2600435612ad1565b916116e08360058301612911565b42600882015560108101600160ff19825416179055600a60098201549101549061171360405192839260043596846129fd565b0390a280f35b6001600160401b03606082959395011161173a57606001604052913861164b565b634e487b7160e01b82526041600452602482fd5b634e487b7160e01b84526041600452602484fd5b600a016117708382546128b0565b90556115ca565b015190503880611559565b906004840187526020872091875b601f19851681106117d75750918391600193600495601f198116106117be575b505050811b0191015561156f565b015160001960f88460031b161c191690553880806117b0565b91926020600181928685015181550194019201611790565b634e487b7160e01b86526041600452602486fd5b634e487b7160e01b85526004859052602485fd5b60405162461bcd60e51b815260206004820152602360248201527f566f74696e673a2043616e6e6f7420766f7465206f6e206f776e2070726f706f6044820152621cd85b60ea1b6064820152608490fd5b60405162461bcd60e51b815260206004820152602660248201527f566f74696e673a20416c726561647920766f746564206f6e20746869732070726044820152651bdc1bdcd85b60d21b6064820152608490fd5b60405162461bcd60e51b815260206004820152602760248201527f566f74696e673a20496e73756666696369656e742072657075746174696f6e20604482015266746f20766f746560c81b6064820152608490fd5b6119269192503d8086833e610ee381836124c0565b90386113eb565b60405162461bcd60e51b815260206004820152601b60248201527f566f74696e673a20566f74696e6720706572696f6420656e64656400000000006044820152606490fd5b506004805490351115611381565b506020813d6020116119b7575b8161199a602093836124c0565b810103126119b3576119ae6113769161268d565b61136c565b8380fd5b3d915061198d565b6040513d86823e3d90fd5b50346101f657806003193601126101f6576003546040516001600160a01b039091168152602090f35b50346101f657806003193601126101f657806001600454905b81811115611aee5750611a1e82612a1b565b91611a2c60405193846124c0565b808352611a3b601f1991612a1b565b0160209036828501378360015b83811115611a625760405180611a5e8782612564565b0390f35b808252600580845260ff8160408520015460081c16611a8081612529565b1580611ad7575b611a9b575b50611a969061288b565b611a48565b8596919651821015611ac357818785611a9694611abc941b8901015261288b565b9590611a8c565b634e487b7160e01b83526032600452602483fd5b508183528084526007604084200154421115611a87565b808452600560209080825260ff8160408820015460081c16611b0f81612529565b159182611b41575b5050611b2c575b611b279061288b565b611a0c565b91611b39611b279161288b565b929050611b1e565b838752525060408420600701544211153880611b17565b50346101f6576020806003193601126103b6576004356005811015610fd857611b8081612529565b82526009815260408220916040518092808554928381520194835280832092905b828210611bc457611a5e85611bb8818903826124c0565b60405191829182612564565b835486529485019460019384019390910190611ba1565b50346101f6576020806003193601126103b65760043580151580611d60575b611c0690939293612965565b81526006825260408120805491611c1c83612a1b565b92611c2a60405194856124c0565b8084528484018093835285832083915b838310611ce25750505050604051928484019085855251809152604084019460408260051b8601019392955b828710611c735785850386f35b909192938280611cd2600193603f198a8203018652885180518252858060a01b03848201511684830152604081015115156040830152606080820151908301526080808201519083015260a0809101519160c080928201520190612504565b9601920196019592919092611c66565b60058860019260409a99979a51611cf881612458565b8554815284860154858060a01b0381168483015260ff60a091821c1615156040830152600287015460608301526003870154608083015260405190611d4b82611d448160048c016123c2565b03836124c0565b82015281520192019201919096939596611c3a565b50600454811115611bfa565b50346101f657806003193601126101f6576040517f00000000000000000000000000000000000000000000000000000000000000006001600160a01b03168152602090f35b50346101f65760a03660031901126101f657604435611dce612661565b61138881101580611e4c575b15611dfd57600435600a55602435600b55600c55606435600d55608435600e5580f35b60405162461bcd60e51b815260206004820152602160248201527f566f74696e673a20496e76616c69642070617373696e67207468726573686f6c6044820152601960fa1b6064820152608490fd5b50612710811115611dda565b50346101f657806003193601126101f6576020600454604051908152f35b50346101f657806003193601126101f6576020600e54604051908152f35b50346101f657611ea33661259f565b9082526006602052604082208054821015610fd857611ec292506125b5565b508054611a5e60046001840154936002810154611ef5600383015492611eee60405180968193016123c2565b03846124c0565b60ff604051968796875260018060a01b038116602088015260a01c16151560408601526060850152608084015260c060a084015260c0830190612504565b50346101f65760203660031901126101f6576004358015158061211b575b611f5a90612965565b80825260056020526040822060058101611f7e60ff825460081c1661031b81612529565b60078201544211801561210c575b156120a157601082019060ff82541661205257600191611fb5611fae86612ad1565b8093612911565b4260088501558260ff19825416179055837ffe720701ff1e6911b3b487f3b4c49853b54be0002c601fe540188d7a1e60e16b6009850154600a8601549061200260405192839287846129fd565b0390a261200e81612529565b14908161203c575b5061201f575080f35b8152600560205261203960ff600560408420015416612529565b80f35b61204a9150600e0154612388565b151538612016565b60405162461bcd60e51b815260206004820152602160248201527f566f74696e673a2050726f706f73616c20616c726561647920657865637574656044820152601960fa1b6064820152608490fd5b60405162461bcd60e51b815260206004820152603860248201527f566f74696e673a20566f74696e6720706572696f64206e6f7420656e6465642060448201527f616e642063616e6e6f742065786563757465206561726c7900000000000000006064820152608490fd5b5061211683612a81565b611f8c565b50600454811115611f51565b50346101f6576020806003193601126103b6576001600160a01b0361214a612549565b1682526008815260408220916040518092808554928381520194835280832092905b82821061218357611a5e85611bb8818903826124c0565b83548652948501946001938401939091019061216c565b82346101f65760203660031901126101f6576004358152600560205260409020805460e052600181015460028201546001600160a01b031660c052918190806121e681600385016123c2565b036121f190826124c0565b604051908161220381600486016123c2565b0361220e90836124c0565b600583015491600684015460078501546008860154600987015490600a88015492600b89015494600c8a015496600d8b01549860405180600e819e0190612254916123c2565b0361225f908d6124c0565b6040519c8d8061227281600f85016123c2565b0361227c916124c0565b601081015460ff16608052601101549d6040518060a05260e051905260a0516020015260c05160a051604001526102608060a0516060015260a051016122c191612504565b60a05180820390608001526122d591612504565b9860ff81166122e381612529565b60a05160a0015260081c60ff166122f981612529565b60a05160c0015260a05160e0015260a051610100015260a051610120015260a051610140015260a051610160015260a051610180015260a0516101a0015260a0516101c0015260a051808203906101e0015261235491612504565b60a05180820390610200015261236991612504565b90608051151560a051610220015260a051610240015260a05180910390f35b90600182811c921680156123b8575b60208310146123a257565b634e487b7160e01b600052602260045260246000fd5b91607f1691612397565b90600092918054916123d383612388565b91828252600193848116908160001461243557506001146123f5575b50505050565b90919394506000526020928360002092846000945b8386106124215750505050010190388080806123ef565b80548587018301529401938590820161240a565b9294505050602093945060ff191683830152151560051b010190388080806123ef565b60c081019081106001600160401b0382111761247357604052565b634e487b7160e01b600052604160045260246000fd5b61026081019081106001600160401b0382111761247357604052565b602081019081106001600160401b0382111761247357604052565b90601f801991011681019081106001600160401b0382111761247357604052565b60005b8381106124f45750506000910152565b81810151838201526020016124e4565b9060209161251d815180928185528580860191016124e1565b601f01601f1916010190565b6005111561253357565b634e487b7160e01b600052602160045260246000fd5b600435906001600160a01b038216820361255f57565b600080fd5b6020908160408183019282815285518094520193019160005b82811061258b575050505090565b83518552938101939281019260010161257d565b604090600319011261255f576004359060243590565b80548210156125d1576000526005602060002091020190600090565b634e487b7160e01b600052603260045260246000fd5b6001600160401b03811161247357601f01601f191660200190565b81601f8201121561255f57803590612619826125e7565b9261262760405194856124c0565b8284526020838301011161255f57816000926020809301838601378301015290565b80548210156125d15760005260206000200190600090565b6000546001600160a01b0316330361267557565b60405163118cdaa760e01b8152336004820152602490fd5b5190811515820361255f57565b156126a157565b60405162461bcd60e51b815260206004820152602260248201527f566f74696e673a204d757374206265207265676973746572656420636974697a60448201526132b760f11b6064820152608490fd5b81601f8201121561255f578051612707816125e7565b9261271560405194856124c0565b8184526020828401011161255f5761273391602080850191016124e1565b90565b60208183031261255f5780516001600160401b039182821161255f570161018092838282031261255f5760405193840184811084821117612473576040528151845260208201516001600160a01b038116810361255f576020850152604082015183811161255f57816127aa9184016126f1565b6040850152606082015183811161255f57816127c79184016126f1565b60608501526080820151608085015260a082015160a085015260c0820151600481101561255f5760c085015260e082015160e0850152610100808301519085015261012061281681840161268d565b908501526101408083015190850152610160928383015190811161255f5761283e92016126f1565b9082015290565b60809060208152602560208201527f566f74696e673a204661696c656420746f2067657420636974697a656e2070726040820152646f66696c6560d81b60608201520190565b600019811461289a5760010190565b634e487b7160e01b600052601160045260246000fd5b9190820180921161289a57565b90601f81116128cb57505050565b600091825260208220906020601f850160051c83019410612907575b601f0160051c01915b8281106128fc57505050565b8181556001016128f0565b90925082906128e7565b9061291b81612529565b61ff0082549160081b169061ff001916179055565b8054600160401b8110156124735761294d91600182018155612649565b819291549060031b91821b91600019901b1916179055565b1561296c57565b60405162461bcd60e51b815260206004820152601b60248201527f566f74696e673a20496e76616c69642070726f706f73616c20494400000000006044820152606490fd5b156129b857565b60405162461bcd60e51b815260206004820152601b60248201527f566f74696e673a2050726f706f73616c206e6f742061637469766500000000006044820152606490fd5b60608101949392604092612a1081612529565b825260208201520152565b6001600160401b0381116124735760051b60200190565b6103e88110612a415750606490565b6101f48110612a505750603290565b606411612a5c57601990565b600a90565b8115612a6b570490565b634e487b7160e01b600052601260045260246000fd5b60005260056020526040600020600b81015490600c810154821015612aa7575050600090565b600901546127109081810291818304149015171561289a57611f4091612acc91612a61565b101590565b60005260056020526040600020600b810154600c8201548110612b255760098201546127109081810291818304149015171561289a57600d91612b1391612a61565b91015411612b2057600190565b600290565b505060039056fea2646970667358221220e0cf7fd0bf3002560c5ee522328dd005fa133b93cae7e253dcf602efa574550764736f6c63430008140033",
  "devdoc": {
    "author": "CitiProof Team",
    "details": "Enables community voting on governance matters",
    "errors": {
      "OwnableInvalidOwner(address)": [
        {
          "details": "The owner is not a valid owner account. (eg. `address(0)`)"
        }
      ],
      "OwnableUnauthorizedAccount(address)": [
        {
          "details": "The caller account is not authorized to perform an operation."
        }
      ],
      "ReentrancyGuardReentrantCall()": [
        {
          "details": "Unauthorized reentrant call."
        }
      ]
    },
    "kind": "dev",
    "methods": {
      "castVote(uint256,bool,string)": {
        "details": "Cast vote on a proposal"
      },
      "createProposal(string,string,uint8,uint256,uint256)": {
        "details": "Create a new governance proposal (simplified to avoid stack too deep)"
      },
      "executeProposal(uint256)": {
        "details": "Execute proposal after voting period ends"
      },
      "owner()": {
        "details": "Returns the address of the current owner."
      },
      "renounceOwnership()": {
        "details": "Leaves the contract without owner. It will not be possible to call `onlyOwner` functions. Can only be called by the current owner. NOTE: Renouncing ownership will leave the contract without an owner, thereby disabling any functionality that is only available to the owner."
      },
      "transferOwnership(address)": {
        "details": "Transfers ownership of the contract to a new account (`newOwner`). Can only be called by the current owner."
      }
    },
    "title": "VotingGovernanceSystem",
    "version": 1
  },
  "userdoc": {
    "kind": "user",
    "methods": {},
    "version": 1
  },
  "storageLayout": {
    "storage": [
      {
        "astId": 8,
        "contract": "contracts/VotingGovernanceSystem.sol:VotingGovernanceSystem",
        "label": "_owner",
        "offset": 0,
        "slot": "0",
        "type": "t_address"
      },
      {
        "astId": 188,
        "contract": "contracts/VotingGovernanceSystem.sol:VotingGovernanceSystem",
        "label": "_status",
        "offset": 0,
        "slot": "1",
        "type": "t_uint256"
      },
      {
        "astId": 10199,
        "contract": "contracts/VotingGovernanceSystem.sol:VotingGovernanceSystem",
        "label": "reputationSystem",
        "offset": 0,
        "slot": "2",
        "type": "t_contract(ReputationSystem)7058"
      },
      {
        "astId": 10202,
        "contract": "contracts/VotingGovernanceSystem.sol:VotingGovernanceSystem",
        "label": "projectRegistry",
        "offset": 0,
        "slot": "3",
        "type": "t_contract(GovernmentProjectRegistry)4141"
      },
      {
        "astId": 10270,
        "contract": "contracts/VotingGovernanceSystem.sol:VotingGovernanceSystem",
        "label": "_proposalIdCounter",
        "offset": 0,
        "slot": "4",
        "type": "t_uint256"
      },
      {
        "astId": 10275,
        "contract": "contracts/VotingGovernanceSystem.sol:VotingGovernanceSystem",
        "label": "proposals",
        "offset": 0,
        "slot": "5",
        "type": "t_mapping(t_uint256,t_struct(Proposal)10255_storage)"
      },
      {
        "astId": 10281,
        "contract": "contracts/VotingGovernanceSystem.sol:VotingGovernanceSystem",
        "label": "proposalVotes",
        "offset": 0,
        "slot": "6",
        "type": "t_mapping(t_uint256,t_array(t_struct(Vote)10268_storage)dyn_storage)"
      },
      {
        "astId": 10287,
        "contract": "contracts/VotingGovernanceSystem.sol:VotingGovernanceSystem",
        "label": "hasVoted",
        "offset": 0,
        "slot": "7",
        "type": "t_mapping(t_uint256,t_mapping(t_uint256,t_bool))"
      },
      {
        "astId": 10292,
        "contract": "contracts/VotingGovernanceSystem.sol:VotingGovernanceSystem",
        "label": "citizenProposals",
        "offset": 0,
        "slot": "8",
        "type": "t_mapping(t_address,t_array(t_uint256)dyn_storage)"
      },
      {
        "astId": 10297,
        "contract": "contracts/VotingGovernanceSystem.sol:VotingGovernanceSystem",
        "label": "typeProposals",
        "offset": 0,
        "slot": "9",
        "type": "t_mapping(t_uint256,t_array(t_uint256)dyn_storage)"
      },
      {
        "astId": 10300,
        "contract": "contracts/VotingGovernanceSystem.sol:VotingGovernanceSystem",
        "label": "defaultVotingPeriod",
        "offset": 0,
        "slot": "10",
        "type": "t_uint256"
      },
      {
        "astId": 10303,
        "contract": "contracts/VotingGovernanceSystem.sol:VotingGovernanceSystem",
        "label": "minimumQuorum",
        "offset": 0,
        "slot": "11",
        "type": "t_uint256"
      },
      {
        "astId": 10306,
        "contract": "contracts/VotingGovernanceSystem.sol:VotingGovernanceSystem",
        "label": "defaultPassingThreshold",
        "offset": 0,
        "slot": "12",
        "type": "t_uint256"
      },
      {
        "astId": 10309,
        "contract": "contracts/VotingGovernanceSystem.sol:VotingGovernanceSystem",
        "label": "minimumReputationToPropose",
        "offset": 0,
        "slot": "13",
        "type": "t_uint256"
      },
      {
        "astId": 10312,
        "contract": "contracts/VotingGovernanceSystem.sol:VotingGovernanceSystem",
        "label": "minimumReputationToVote",
        "offset": 0,
        "slot": "14",
        "type": "t_uint256"
      }
    ],
    "types": {
      "t_address": {
        "encoding": "inplace",
        "label": "address",
        "numberOfBytes": "20"
      },
      "t_array(t_struct(Vote)10268_storage)dyn_storage": {
        "base": "t_struct(Vote)10268_storage",
        "encoding": "dynamic_array",
        "label": "struct VotingGovernanceSystem.Vote[]",
        "numberOfBytes": "32"
      },
      "t_array(t_uint256)dyn_storage": {
        "base": "t_uint256",
        "encoding": "dynamic_array",
        "label": "uint256[]",
        "numberOfBytes": "32"
      },
      "t_bool": {
        "encoding": "inplace",
        "label": "bool",
        "numberOfBytes": "1"
      },
      "t_bytes_storage": {
        "encoding": "bytes",
        "label": "bytes",
        "numberOfBytes": "32"
      },
      "t_contract(GovernmentProjectRegistry)4141": {
        "encoding": "inplace",
        "label": "contract GovernmentProjectRegistry",
        "numberOfBytes": "20"
      },
      "t_contract(ReputationSystem)7058": {
        "encoding": "inplace",
        "label": "contract ReputationSystem",
        "numberOfBytes": "20"
      },
      "t_enum(ProposalStatus)10214": {
        "encoding": "inplace",
        "label": "enum VotingGovernanceSystem.ProposalStatus",
        "numberOfBytes": "1"
      },
      "t_enum(ProposalType)10208": {
        "encoding": "inplace",
        "label": "enum VotingGovernanceSystem.ProposalType",
        "numberOfBytes": "1"
      },
      "t_mapping(t_address,t_array(t_uint256)dyn_storage)": {
        "encoding": "mapping",
        "key": "t_address",
        "label": "mapping(address => uint256[])",
        "numberOfBytes": "32",
        "value": "t_array(t_uint256)dyn_storage"
      },
      "t_mapping(t_uint256,t_array(t_struct(Vote)10268_storage)dyn_storage)": {
        "encoding": "mapping",
        "key": "t_uint256",
        "label": "mapping(uint256 => struct VotingGovernanceSystem.Vote[])",
        "numberOfBytes": "32",
        "value": "t_array(t_struct(Vote)10268_storage)dyn_storage"
      },
      "t_mapping(t_uint256,t_array(t_uint256)dyn_storage)": {
        "encoding": "mapping",
        "key": "t_uint256",
        "label": "mapping(uint256 => uint256[])",
        "numberOfBytes": "32",
        "value": "t_array(t_uint256)dyn_storage"
      },
      "t_mapping(t_uint256,t_bool)": {
        "encoding": "mapping",
        "key": "t_uint256",
        "label": "mapping(uint256 => bool)",
        "numberOfBytes": "32",
        "value": "t_bool"
      },
      "t_mapping(t_uint256,t_mapping(t_uint256,t_bool))": {
        "encoding": "mapping",
        "key": "t_uint256",
        "label": "mapping(uint256 => mapping(uint256 => bool))",
        "numberOfBytes": "32",
        "value": "t_mapping(t_uint256,t_bool)"
      },
      "t_mapping(t_uint256,t_struct(Proposal)10255_storage)": {
        "encoding": "mapping",
        "key": "t_uint256",
        "label": "mapping(uint256 => struct VotingGovernanceSystem.Proposal)",
        "numberOfBytes": "32",
        "value": "t_struct(Proposal)10255_storage"
      },
      "t_string_storage": {
        "encoding": "bytes",
        "label": "string",
        "numberOfBytes": "32"
      },
      "t_struct(Proposal)10255_storage": {
        "encoding": "inplace",
        "label": "struct VotingGovernanceSystem.Proposal",
        "members": [
          {
            "astId": 10216,
            "contract": "contracts/VotingGovernanceSystem.sol:VotingGovernanceSystem",
            "label": "proposalId",
            "offset": 0,
            "slot": "0",
            "type": "t_uint256"
          },
          {
            "astId": 10218,
            "contract": "contracts/VotingGovernanceSystem.sol:VotingGovernanceSystem",
            "label": "creatorCitizenId",
            "offset": 0,
            "slot": "1",
            "type": "t_uint256"
          },
          {
            "astId": 10220,
            "contract": "contracts/VotingGovernanceSystem.sol:VotingGovernanceSystem",
            "label": "creator",
            "offset": 0,
            "slot": "2",
            "type": "t_address"
          },
          {
            "astId": 10222,
            "contract": "contracts/VotingGovernanceSystem.sol:VotingGovernanceSystem",
            "label": "title",
            "offset": 0,
            "slot": "3",
            "type": "t_string_storage"
          },
          {
            "astId": 10224,
            "contract": "contracts/VotingGovernanceSystem.sol:VotingGovernanceSystem",
            "label": "ipfsDescriptionHash",
            "offset": 0,
            "slot": "4",
            "type": "t_string_storage"
          },
          {
            "astId": 10227,
            "contract": "contracts/VotingGovernanceSystem.sol:VotingGovernanceSystem",
            "label": "proposalType",
            "offset": 0,
            "slot": "5",
            "type": "t_enum(ProposalType)10208"
          },
          {
            "astId": 10230,
            "contract": "contracts/VotingGovernanceSystem.sol:VotingGovernanceSystem",
            "label": "status",
            "offset": 1,
            "slot": "5",
            "type": "t_enum(ProposalStatus)10214"
          },
          {
            "astId": 10232,
            "contract": "contracts/VotingGovernanceSystem.sol:VotingGovernanceSystem",
            "label": "creationTimestamp",
            "offset": 0,
            "slot": "6",
            "type": "t_uint256"
          },
          {
            "astId": 10234,
            "contract": "contracts/VotingGovernanceSystem.sol:VotingGovernanceSystem",
            "label": "votingEndTimestamp",
            "offset": 0,
            "slot": "7",
            "type": "t_uint256"
          },
          {
            "astId": 10236,
            "contract": "contracts/VotingGovernanceSystem.sol:VotingGovernanceSystem",
            "label": "executionTimestamp",
            "offset": 0,
            "slot": "8",
            "type": "t_uint256"
          },
          {
            "astId": 10238,
            "contract": "contracts/VotingGovernanceSystem.sol:VotingGovernanceSystem",
            "label": "yesVotes",
            "offset": 0,
            "slot": "9",
            "type": "t_uint256"
          },
          {
            "astId": 10240,
            "contract": "contracts/VotingGovernanceSystem.sol:VotingGovernanceSystem",
            "label": "noVotes",
            "offset": 0,
            "slot": "10",
            "type": "t_uint256"
          },
          {
            "astId": 10242,
            "contract": "contracts/VotingGovernanceSystem.sol:VotingGovernanceSystem",
            "label": "totalVotingPower",
            "offset": 0,
            "slot": "11",
            "type": "t_uint256"
          },
          {
            "astId": 10244,
            "contract": "contracts/VotingGovernanceSystem.sol:VotingGovernanceSystem",
            "label": "quorumRequired",
            "offset": 0,
            "slot": "12",
            "type": "t_uint256"
          },
          {
            "astId": 10246,
            "contract": "contracts/VotingGovernanceSystem.sol:VotingGovernanceSystem",
            "label": "passingThreshold",
            "offset": 0,
            "slot": "13",
            "type": "t_uint256"
          },
          {
            "astId": 10248,
            "contract": "contracts/VotingGovernanceSystem.sol:VotingGovernanceSystem",
            "label": "executionData",
            "offset": 0,
            "slot": "14",
            "type": "t_bytes_storage"
          },
          {
            "astId": 10250,
            "contract": "contracts/VotingGovernanceSystem.sol:VotingGovernanceSystem",
            "label": "ipfsDocumentHash",
            "offset": 0,
            "slot": "15",
            "type": "t_string_storage"
          },
          {
            "astId": 10252,
            "contract": "contracts/VotingGovernanceSystem.sol:VotingGovernanceSystem",
            "label": "isExecuted",
            "offset": 0,
            "slot": "16",
            "type": "t_bool"
          },
          {
            "astId": 10254,
            "contract": "contracts/VotingGovernanceSystem.sol:VotingGovernanceSystem",
            "label": "relatedProjectId",
            "offset": 0,
            "slot": "17",
            "type": "t_uint256"
          }
        ],
        "numberOfBytes": "576"
      },
      "t_struct(Vote)10268_storage": {
        "encoding": "inplace",
        "label": "struct VotingGovernanceSystem.Vote",
        "members": [
          {
            "astId": 10257,
            "contract": "contracts/VotingGovernanceSystem.sol:VotingGovernanceSystem",
            "label": "citizenId",
            "offset": 0,
            "slot": "0",
            "type": "t_uint256"
          },
          {
            "astId": 10259,
            "contract": "contracts/VotingGovernanceSystem.sol:VotingGovernanceSystem",
            "label": "voter",
            "offset": 0,
            "slot": "1",
            "type": "t_address"
          },
          {
            "astId": 10261,
            "contract": "contracts/VotingGovernanceSystem.sol:VotingGovernanceSystem",
            "label": "support",
            "offset": 20,
            "slot": "1",
            "type": "t_bool"
          },
          {
            "astId": 10263,
            "contract": "contracts/VotingGovernanceSystem.sol:VotingGovernanceSystem",
            "label": "votingPower",
            "offset": 0,
            "slot": "2",
            "type": "t_uint256"
          },
          {
            "astId": 10265,
            "contract": "contracts/VotingGovernanceSystem.sol:VotingGovernanceSystem",
            "label": "timestamp",
            "offset": 0,
            "slot": "3",
            "type": "t_uint256"
          },
          {
            "astId": 10267,
            "contract": "contracts/VotingGovernanceSystem.sol:VotingGovernanceSystem",
            "label": "reason",
            "offset": 0,
            "slot": "4",
            "type": "t_string_storage"
          }
        ],
        "numberOfBytes": "160"
      },
      "t_uint256": {
        "encoding": "inplace",
        "label": "uint256",
        "numberOfBytes": "32"
      }
    }
  }
}